{
  "contractName": "DigiCert",
  "abi": [
    {
      "constant": true,
      "inputs": [],
      "name": "_qt_users",
      "outputs": [
        {
          "name": "",
          "type": "uint256"
        }
      ],
      "payable": false,
      "stateMutability": "view",
      "type": "function"
    },
    {
      "constant": true,
      "inputs": [
        {
          "name": "",
          "type": "address"
        }
      ],
      "name": "_users",
      "outputs": [
        {
          "name": "",
          "type": "bytes1"
        }
      ],
      "payable": false,
      "stateMutability": "view",
      "type": "function"
    },
    {
      "constant": true,
      "inputs": [],
      "name": "_created_timestamp",
      "outputs": [
        {
          "name": "",
          "type": "uint256"
        }
      ],
      "payable": false,
      "stateMutability": "view",
      "type": "function"
    },
    {
      "constant": true,
      "inputs": [],
      "name": "T_STUDENT",
      "outputs": [
        {
          "name": "",
          "type": "bytes1"
        }
      ],
      "payable": false,
      "stateMutability": "view",
      "type": "function"
    },
    {
      "constant": true,
      "inputs": [
        {
          "name": "",
          "type": "address"
        }
      ],
      "name": "_organizations",
      "outputs": [
        {
          "name": "organization_address",
          "type": "address"
        },
        {
          "name": "name_organization",
          "type": "string"
        },
        {
          "name": "phone",
          "type": "uint256"
        },
        {
          "name": "email",
          "type": "string"
        },
        {
          "name": "web_page",
          "type": "string"
        },
        {
          "name": "qt_certificates_issued",
          "type": "uint256"
        },
        {
          "name": "added_by",
          "type": "address"
        },
        {
          "name": "added_timestamp",
          "type": "uint256"
        },
        {
          "name": "updated_timestamp",
          "type": "uint256"
        }
      ],
      "payable": false,
      "stateMutability": "view",
      "type": "function"
    },
    {
      "constant": true,
      "inputs": [],
      "name": "T_ADMIN",
      "outputs": [
        {
          "name": "",
          "type": "bytes1"
        }
      ],
      "payable": false,
      "stateMutability": "view",
      "type": "function"
    },
    {
      "constant": true,
      "inputs": [],
      "name": "T_ORGANIZATION",
      "outputs": [
        {
          "name": "",
          "type": "bytes1"
        }
      ],
      "payable": false,
      "stateMutability": "view",
      "type": "function"
    },
    {
      "constant": true,
      "inputs": [
        {
          "name": "",
          "type": "address"
        }
      ],
      "name": "_students",
      "outputs": [
        {
          "name": "student_address",
          "type": "address"
        },
        {
          "name": "name_student",
          "type": "string"
        },
        {
          "name": "lastname_student",
          "type": "string"
        },
        {
          "name": "email",
          "type": "string"
        },
        {
          "name": "phone",
          "type": "uint256"
        },
        {
          "name": "qt_certificates",
          "type": "uint256"
        },
        {
          "name": "added_by",
          "type": "address"
        },
        {
          "name": "added_timestamp",
          "type": "uint256"
        },
        {
          "name": "updated_timestamp",
          "type": "uint256"
        }
      ],
      "payable": false,
      "stateMutability": "view",
      "type": "function"
    },
    {
      "constant": true,
      "inputs": [
        {
          "name": "",
          "type": "uint256"
        }
      ],
      "name": "certificates_hashes",
      "outputs": [
        {
          "name": "id",
          "type": "uint256"
        },
        {
          "name": "organization",
          "type": "string"
        },
        {
          "name": "title",
          "type": "string"
        },
        {
          "name": "ipfs_hash",
          "type": "string"
        },
        {
          "name": "added_by",
          "type": "address"
        },
        {
          "name": "added_timestamp",
          "type": "uint256"
        }
      ],
      "payable": false,
      "stateMutability": "view",
      "type": "function"
    },
    {
      "constant": true,
      "inputs": [
        {
          "name": "",
          "type": "uint256"
        }
      ],
      "name": "organizations_added",
      "outputs": [
        {
          "name": "organization_address",
          "type": "address"
        },
        {
          "name": "name_organization",
          "type": "string"
        },
        {
          "name": "phone",
          "type": "uint256"
        },
        {
          "name": "email",
          "type": "string"
        },
        {
          "name": "web_page",
          "type": "string"
        },
        {
          "name": "qt_certificates_issued",
          "type": "uint256"
        },
        {
          "name": "added_by",
          "type": "address"
        },
        {
          "name": "added_timestamp",
          "type": "uint256"
        },
        {
          "name": "updated_timestamp",
          "type": "uint256"
        }
      ],
      "payable": false,
      "stateMutability": "view",
      "type": "function"
    },
    {
      "constant": true,
      "inputs": [],
      "name": "_owner",
      "outputs": [
        {
          "name": "",
          "type": "address"
        }
      ],
      "payable": false,
      "stateMutability": "view",
      "type": "function"
    },
    {
      "constant": true,
      "inputs": [],
      "name": "VERSION",
      "outputs": [
        {
          "name": "",
          "type": "bytes10"
        }
      ],
      "payable": false,
      "stateMutability": "view",
      "type": "function"
    },
    {
      "inputs": [],
      "payable": true,
      "stateMutability": "payable",
      "type": "constructor"
    },
    {
      "constant": false,
      "inputs": [
        {
          "name": "paddress",
          "type": "address"
        },
        {
          "name": "_name_organization",
          "type": "string"
        }
      ],
      "name": "addOrganization",
      "outputs": [],
      "payable": true,
      "stateMutability": "payable",
      "type": "function"
    },
    {
      "constant": false,
      "inputs": [
        {
          "name": "paddress",
          "type": "address"
        },
        {
          "name": "_name_student",
          "type": "string"
        },
        {
          "name": "_lastname_student",
          "type": "string"
        }
      ],
      "name": "addStudent",
      "outputs": [],
      "payable": true,
      "stateMutability": "payable",
      "type": "function"
    },
    {
      "constant": false,
      "inputs": [
        {
          "name": "pstudent",
          "type": "address"
        },
        {
          "name": "_title",
          "type": "string"
        },
        {
          "name": "ipfs_hash",
          "type": "string"
        }
      ],
      "name": "addCertificate",
      "outputs": [],
      "payable": true,
      "stateMutability": "payable",
      "type": "function"
    },
    {
      "constant": false,
      "inputs": [
        {
          "name": "_email",
          "type": "string"
        },
        {
          "name": "_phone",
          "type": "uint256"
        }
      ],
      "name": "setStudent",
      "outputs": [],
      "payable": true,
      "stateMutability": "payable",
      "type": "function"
    },
    {
      "constant": false,
      "inputs": [
        {
          "name": "_phone",
          "type": "uint256"
        },
        {
          "name": "_email",
          "type": "string"
        },
        {
          "name": "_web_page",
          "type": "string"
        }
      ],
      "name": "setOrganization",
      "outputs": [],
      "payable": true,
      "stateMutability": "payable",
      "type": "function"
    },
    {
      "constant": true,
      "inputs": [
        {
          "name": "pstudent",
          "type": "address"
        },
        {
          "name": "pcertificate",
          "type": "uint256"
        }
      ],
      "name": "getCertificateEstudent",
      "outputs": [
        {
          "name": "",
          "type": "uint256"
        },
        {
          "name": "",
          "type": "string"
        },
        {
          "name": "",
          "type": "string"
        },
        {
          "name": "",
          "type": "string"
        },
        {
          "name": "",
          "type": "string"
        },
        {
          "name": "",
          "type": "string"
        },
        {
          "name": "",
          "type": "address"
        },
        {
          "name": "",
          "type": "uint256"
        }
      ],
      "payable": false,
      "stateMutability": "view",
      "type": "function"
    },
    {
      "constant": true,
      "inputs": [
        {
          "name": "pstudent",
          "type": "address"
        },
        {
          "name": "_ipfs_hash",
          "type": "string"
        }
      ],
      "name": "getCertificateThird",
      "outputs": [
        {
          "name": "",
          "type": "string"
        },
        {
          "name": "",
          "type": "address"
        },
        {
          "name": "",
          "type": "string"
        },
        {
          "name": "",
          "type": "string"
        },
        {
          "name": "",
          "type": "string"
        },
        {
          "name": "",
          "type": "uint256"
        }
      ],
      "payable": false,
      "stateMutability": "view",
      "type": "function"
    },
    {
      "constant": true,
      "inputs": [],
      "name": "totalOrganizations",
      "outputs": [
        {
          "name": "",
          "type": "uint256"
        }
      ],
      "payable": false,
      "stateMutability": "view",
      "type": "function"
    },
    {
      "constant": true,
      "inputs": [
        {
          "name": "uaddress",
          "type": "address"
        }
      ],
      "name": "userType",
      "outputs": [
        {
          "name": "",
          "type": "uint256"
        }
      ],
      "payable": false,
      "stateMutability": "view",
      "type": "function"
    }
  ],
  "bytecode": "0x60806040526000600255336000806101000a81548173ffffffffffffffffffffffffffffffffffffffff021916908373ffffffffffffffffffffffffffffffffffffffff1602179055504260018190555060017f010000000000000000000000000000000000000000000000000000000000000002600360003373ffffffffffffffffffffffffffffffffffffffff1673ffffffffffffffffffffffffffffffffffffffff16815260200190815260200160002060006101000a81548160ff02191690837f0100000000000000000000000000000000000000000000000000000000000000900402179055506002600081548092919060010191905055506150a88061010c6000396000f30060806040526004361061011d576000357c0100000000000000000000000000000000000000000000000000000000900463ffffffff1680630f160ac21461012257806321a829c61461014d5780633cacd7d61461020f57806344fc2923146102aa5780634cf5d552146102d55780634eb841bc146103005780636867478a1461036f57806368bb6cae146103eb57806371fc2d2e146106a2578063981e1aa3146108b85780639b4d52dd146109275780639c68ce2d1461098d5780639e165740146109fc578063a8d1e25a14610c12578063af9aa8b114610dd1578063b006637a14610fd1578063b2bdfa7b1461107d578063b83458b0146110d4578063e7f6a7011461112b578063ffa1ad74146113ab578063ffecb92f14611408575b600080fd5b34801561012e57600080fd5b506101376114ca565b6040518082815260200191505060405180910390f35b61020d600480360381019080803573ffffffffffffffffffffffffffffffffffffffff169060200190929190803590602001908201803590602001908080601f0160208091040260200160405190810160405280939291908181526020018383808284378201915050505050509192919290803590602001908201803590602001908080601f01602080910402602001604051908101604052809392919081815260200183838082843782019150505050505091929192905050506114d0565b005b34801561021b57600080fd5b50610250600480360381019080803573ffffffffffffffffffffffffffffffffffffffff169060200190929190505050611913565b60405180827effffffffffffffffffffffffffffffffffffffffffffffffffffffffffffff19167effffffffffffffffffffffffffffffffffffffffffffffffffffffffffffff1916815260200191505060405180910390f35b3480156102b657600080fd5b506102bf611952565b6040518082815260200191505060405180910390f35b3480156102e157600080fd5b506102ea611958565b6040518082815260200191505060405180910390f35b34801561030c57600080fd5b50610315611965565b60405180827effffffffffffffffffffffffffffffffffffffffffffffffffffffffffffff19167effffffffffffffffffffffffffffffffffffffffffffffffffffffffffffff1916815260200191505060405180910390f35b6103e9600480360381019080803573ffffffffffffffffffffffffffffffffffffffff169060200190929190803590602001908201803590602001908080601f016020809104026020016040519081016040528093929190818152602001838380828437820191505050505050919291929050505061198c565b005b3480156103f757600080fd5b50610436600480360381019080803573ffffffffffffffffffffffffffffffffffffffff16906020019092919080359060200190929190505050611f04565b6040518089815260200180602001806020018060200180602001806020018873ffffffffffffffffffffffffffffffffffffffff1673ffffffffffffffffffffffffffffffffffffffff16815260200187815260200186810386528d818151815260200191508051906020019080838360005b838110156104c45780820151818401526020810190506104a9565b50505050905090810190601f1680156104f15780820380516001836020036101000a031916815260200191505b5086810385528c818151815260200191508051906020019080838360005b8381101561052a57808201518184015260208101905061050f565b50505050905090810190601f1680156105575780820380516001836020036101000a031916815260200191505b5086810384528b818151815260200191508051906020019080838360005b83811015610590578082015181840152602081019050610575565b50505050905090810190601f1680156105bd5780820380516001836020036101000a031916815260200191505b5086810383528a818151815260200191508051906020019080838360005b838110156105f65780820151818401526020810190506105db565b50505050905090810190601f1680156106235780820380516001836020036101000a031916815260200191505b50868103825289818151815260200191508051906020019080838360005b8381101561065c578082015181840152602081019050610641565b50505050905090810190601f1680156106895780820380516001836020036101000a031916815260200191505b509d505050505050505050505050505060405180910390f35b3480156106ae57600080fd5b506106e3600480360381019080803573ffffffffffffffffffffffffffffffffffffffff169060200190929190505050612610565b604051808a73ffffffffffffffffffffffffffffffffffffffff1673ffffffffffffffffffffffffffffffffffffffff1681526020018060200189815260200180602001806020018881526020018773ffffffffffffffffffffffffffffffffffffffff1673ffffffffffffffffffffffffffffffffffffffff16815260200186815260200185815260200184810384528c818151815260200191508051906020019080838360005b838110156107a757808201518184015260208101905061078c565b50505050905090810190601f1680156107d45780820380516001836020036101000a031916815260200191505b5084810383528a818151815260200191508051906020019080838360005b8381101561080d5780820151818401526020810190506107f2565b50505050905090810190601f16801561083a5780820380516001836020036101000a031916815260200191505b50848103825289818151815260200191508051906020019080838360005b83811015610873578082015181840152602081019050610858565b50505050905090810190601f1680156108a05780820380516001836020036101000a031916815260200191505b509c5050505050505050505050505060405180910390f35b3480156108c457600080fd5b506108cd612866565b60405180827effffffffffffffffffffffffffffffffffffffffffffffffffffffffffffff19167effffffffffffffffffffffffffffffffffffffffffffffffffffffffffffff1916815260200191505060405180910390f35b61098b600480360381019080803590602001908201803590602001908080601f01602080910402602001604051908101604052809392919081815260200183838082843782019150505050505091929192908035906020019092919050505061288d565b005b34801561099957600080fd5b506109a2612df1565b60405180827effffffffffffffffffffffffffffffffffffffffffffffffffffffffffffff19167effffffffffffffffffffffffffffffffffffffffffffffffffffffffffffff1916815260200191505060405180910390f35b348015610a0857600080fd5b50610a3d600480360381019080803573ffffffffffffffffffffffffffffffffffffffff169060200190929190505050612e18565b604051808a73ffffffffffffffffffffffffffffffffffffffff1673ffffffffffffffffffffffffffffffffffffffff1681526020018060200180602001806020018981526020018881526020018773ffffffffffffffffffffffffffffffffffffffff1673ffffffffffffffffffffffffffffffffffffffff16815260200186815260200185815260200184810384528c818151815260200191508051906020019080838360005b83811015610b01578082015181840152602081019050610ae6565b50505050905090810190601f168015610b2e5780820380516001836020036101000a031916815260200191505b5084810383528b818151815260200191508051906020019080838360005b83811015610b67578082015181840152602081019050610b4c565b50505050905090810190601f168015610b945780820380516001836020036101000a031916815260200191505b5084810382528a818151815260200191508051906020019080838360005b83811015610bcd578082015181840152602081019050610bb2565b50505050905090810190601f168015610bfa5780820380516001836020036101000a031916815260200191505b509c5050505050505050505050505060405180910390f35b348015610c1e57600080fd5b50610c3d6004803603810190808035906020019092919050505061306e565b604051808781526020018060200180602001806020018673ffffffffffffffffffffffffffffffffffffffff1673ffffffffffffffffffffffffffffffffffffffff168152602001858152602001848103845289818151815260200191508051906020019080838360005b83811015610cc3578082015181840152602081019050610ca8565b50505050905090810190601f168015610cf05780820380516001836020036101000a031916815260200191505b50848103835288818151815260200191508051906020019080838360005b83811015610d29578082015181840152602081019050610d0e565b50505050905090810190601f168015610d565780820380516001836020036101000a031916815260200191505b50848103825287818151815260200191508051906020019080838360005b83811015610d8f578082015181840152602081019050610d74565b50505050905090810190601f168015610dbc5780820380516001836020036101000a031916815260200191505b50995050505050505050505060405180910390f35b348015610ddd57600080fd5b50610dfc600480360381019080803590602001909291905050506132a1565b604051808a73ffffffffffffffffffffffffffffffffffffffff1673ffffffffffffffffffffffffffffffffffffffff1681526020018060200189815260200180602001806020018881526020018773ffffffffffffffffffffffffffffffffffffffff1673ffffffffffffffffffffffffffffffffffffffff16815260200186815260200185815260200184810384528c818151815260200191508051906020019080838360005b83811015610ec0578082015181840152602081019050610ea5565b50505050905090810190601f168015610eed5780820380516001836020036101000a031916815260200191505b5084810383528a818151815260200191508051906020019080838360005b83811015610f26578082015181840152602081019050610f0b565b50505050905090810190601f168015610f535780820380516001836020036101000a031916815260200191505b50848103825289818151815260200191508051906020019080838360005b83811015610f8c578082015181840152602081019050610f71565b50505050905090810190601f168015610fb95780820380516001836020036101000a031916815260200191505b509c5050505050505050505050505060405180910390f35b61107b60048036038101908080359060200190929190803590602001908201803590602001908080601f0160208091040260200160405190810160405280939291908181526020018383808284378201915050505050509192919290803590602001908201803590602001908080601f0160208091040260200160405190810160405280939291908181526020018383808284378201915050505050509192919290505050613506565b005b34801561108957600080fd5b50611092613a74565b604051808273ffffffffffffffffffffffffffffffffffffffff1673ffffffffffffffffffffffffffffffffffffffff16815260200191505060405180910390f35b3480156110e057600080fd5b50611115600480360381019080803573ffffffffffffffffffffffffffffffffffffffff169060200190929190505050613a99565b6040518082815260200191505060405180910390f35b34801561113757600080fd5b506111b2600480360381019080803573ffffffffffffffffffffffffffffffffffffffff169060200190929190803590602001908201803590602001908080601f0160208091040260200160405190810160405280939291908181526020018383808284378201915050505050509192919290505050613d4e565b60405180806020018773ffffffffffffffffffffffffffffffffffffffff1673ffffffffffffffffffffffffffffffffffffffff16815260200180602001806020018060200186815260200185810385528b818151815260200191508051906020019080838360005b8381101561123657808201518184015260208101905061121b565b50505050905090810190601f1680156112635780820380516001836020036101000a031916815260200191505b50858103845289818151815260200191508051906020019080838360005b8381101561129c578082015181840152602081019050611281565b50505050905090810190601f1680156112c95780820380516001836020036101000a031916815260200191505b50858103835288818151815260200191508051906020019080838360005b838110156113025780820151818401526020810190506112e7565b50505050905090810190601f16801561132f5780820380516001836020036101000a031916815260200191505b50858103825287818151815260200191508051906020019080838360005b8381101561136857808201518184015260208101905061134d565b50505050905090810190601f1680156113955780820380516001836020036101000a031916815260200191505b509a505050505050505050505060405180910390f35b3480156113b757600080fd5b506113c0614506565b604051808275ffffffffffffffffffffffffffffffffffffffffffff191675ffffffffffffffffffffffffffffffffffffffffffff1916815260200191505060405180910390f35b6114c8600480360381019080803573ffffffffffffffffffffffffffffffffffffffff169060200190929190803590602001908201803590602001908080601f0160208091040260200160405190810160405280939291908181526020018383808284378201915050505050509192919290803590602001908201803590602001908080601f016020809104026020016040519081016040528093929190818152602001838380828437820191505050505050919291929050505061452a565b005b60025481565b60006114da614e11565b60027f0100000000000000000000000000000000000000000000000000000000000000027effffffffffffffffffffffffffffffffffffffffffffffffffffffffffffff1916600360003373ffffffffffffffffffffffffffffffffffffffff1673ffffffffffffffffffffffffffffffffffffffff16815260200190815260200160002060009054906101000a90047f0100000000000000000000000000000000000000000000000000000000000000027effffffffffffffffffffffffffffffffffffffffffffffffffffffffffffff191614801561166a575060007f010000000000000000000000000000000000000000000000000000000000000002600360008773ffffffffffffffffffffffffffffffffffffffff1673ffffffffffffffffffffffffffffffffffffffff16815260200190815260200160002060009054906101000a90047f0100000000000000000000000000000000000000000000000000000000000000027effffffffffffffffffffffffffffffffffffffffffffffffffffffffffffff1916145b151561167557600080fd5b60037f010000000000000000000000000000000000000000000000000000000000000002915084816000019073ffffffffffffffffffffffffffffffffffffffff16908173ffffffffffffffffffffffffffffffffffffffff168152505083816020018190525082816040018190525060008160a0018181525050338160c0019073ffffffffffffffffffffffffffffffffffffffff16908173ffffffffffffffffffffffffffffffffffffffff1681525050428160e001818152505080600560008773ffffffffffffffffffffffffffffffffffffffff1673ffffffffffffffffffffffffffffffffffffffff16815260200190815260200160002060008201518160000160006101000a81548173ffffffffffffffffffffffffffffffffffffffff021916908373ffffffffffffffffffffffffffffffffffffffff16021790555060208201518160010190805190602001906117d5929190614e8a565b5060408201518160020190805190602001906117f2929190614e8a565b50606082015181600301908051906020019061180f929190614e8a565b506080820151816004015560a0820151816006015560c08201518160070160006101000a81548173ffffffffffffffffffffffffffffffffffffffff021916908373ffffffffffffffffffffffffffffffffffffffff16021790555060e08201518160080155610100820151816009015590505081600360008773ffffffffffffffffffffffffffffffffffffffff1673ffffffffffffffffffffffffffffffffffffffff16815260200190815260200160002060006101000a81548160ff02191690837f01000000000000000000000000000000000000000000000000000000000000009004021790555060016002600082825401925050819055505050505050565b60036020528060005260406000206000915054906101000a90047f01000000000000000000000000000000000000000000000000000000000000000281565b60015481565b6000600780549050905090565b60037f01000000000000000000000000000000000000000000000000000000000000000281565b6000611996614f0a565b60017f0100000000000000000000000000000000000000000000000000000000000000027effffffffffffffffffffffffffffffffffffffffffffffffffffffffffffff1916600360003373ffffffffffffffffffffffffffffffffffffffff1673ffffffffffffffffffffffffffffffffffffffff16815260200190815260200160002060009054906101000a90047f0100000000000000000000000000000000000000000000000000000000000000027effffffffffffffffffffffffffffffffffffffffffffffffffffffffffffff1916148015611b26575060007f010000000000000000000000000000000000000000000000000000000000000002600360008673ffffffffffffffffffffffffffffffffffffffff1673ffffffffffffffffffffffffffffffffffffffff16815260200190815260200160002060009054906101000a90047f0100000000000000000000000000000000000000000000000000000000000000027effffffffffffffffffffffffffffffffffffffffffffffffffffffffffffff1916145b1515611b3157600080fd5b60027f010000000000000000000000000000000000000000000000000000000000000002915083816000019073ffffffffffffffffffffffffffffffffffffffff16908173ffffffffffffffffffffffffffffffffffffffff168152505082816020018190525060008160a0018181525050338160c0019073ffffffffffffffffffffffffffffffffffffffff16908173ffffffffffffffffffffffffffffffffffffffff1681525050428160e00181815250506007819080600181540180825580915050906001820390600052602060002090600902016000909192909190915060008201518160000160006101000a81548173ffffffffffffffffffffffffffffffffffffffff021916908373ffffffffffffffffffffffffffffffffffffffff1602179055506020820151816001019080519060200190611c76929190614e8a565b50604082015181600201556060820151816003019080519060200190611c9d929190614e8a565b506080820151816004019080519060200190611cba929190614e8a565b5060a0820151816005015560c08201518160060160006101000a81548173ffffffffffffffffffffffffffffffffffffffff021916908373ffffffffffffffffffffffffffffffffffffffff16021790555060e08201518160070155610100820151816008015550505080600460008673ffffffffffffffffffffffffffffffffffffffff1673ffffffffffffffffffffffffffffffffffffffff16815260200190815260200160002060008201518160000160006101000a81548173ffffffffffffffffffffffffffffffffffffffff021916908373ffffffffffffffffffffffffffffffffffffffff1602179055506020820151816001019080519060200190611dc7929190614e8a565b50604082015181600201556060820151816003019080519060200190611dee929190614e8a565b506080820151816004019080519060200190611e0b929190614e8a565b5060a0820151816005015560c08201518160060160006101000a81548173ffffffffffffffffffffffffffffffffffffffff021916908373ffffffffffffffffffffffffffffffffffffffff16021790555060e08201518160070155610100820151816008015590505081600360008673ffffffffffffffffffffffffffffffffffffffff1673ffffffffffffffffffffffffffffffffffffffff16815260200190815260200160002060006101000a81548160ff02191690837f010000000000000000000000000000000000000000000000000000000000000090040217905550600160026000828254019250508190555050505050565b60006060806060806060600080611f19614f83565b611f21614e11565b60037f0100000000000000000000000000000000000000000000000000000000000000027effffffffffffffffffffffffffffffffffffffffffffffffffffffffffffff1916600360008e73ffffffffffffffffffffffffffffffffffffffff1673ffffffffffffffffffffffffffffffffffffffff16815260200190815260200160002060009054906101000a90047f0100000000000000000000000000000000000000000000000000000000000000027effffffffffffffffffffffffffffffffffffffffffffffffffffffffffffff191614151561200157600080fd5b600560008d73ffffffffffffffffffffffffffffffffffffffff1673ffffffffffffffffffffffffffffffffffffffff16815260200190815260200160002060050160008c815260200190815260200160002060c0604051908101604052908160008201548152602001600182018054600181600116156101000203166002900480601f0160208091040260200160405190810160405280929190818152602001828054600181600116156101000203166002900480156121035780601f106120d857610100808354040283529160200191612103565b820191906000526020600020905b8154815290600101906020018083116120e657829003601f168201915b50505050508152602001600282018054600181600116156101000203166002900480601f0160208091040260200160405190810160405280929190818152602001828054600181600116156101000203166002900480156121a55780601f1061217a576101008083540402835291602001916121a5565b820191906000526020600020905b81548152906001019060200180831161218857829003601f168201915b50505050508152602001600382018054600181600116156101000203166002900480601f0160208091040260200160405190810160405280929190818152602001828054600181600116156101000203166002900480156122475780601f1061221c57610100808354040283529160200191612247565b820191906000526020600020905b81548152906001019060200180831161222a57829003601f168201915b505050505081526020016004820160009054906101000a900473ffffffffffffffffffffffffffffffffffffffff1673ffffffffffffffffffffffffffffffffffffffff1673ffffffffffffffffffffffffffffffffffffffff1681526020016005820154815250509150600560008d73ffffffffffffffffffffffffffffffffffffffff1673ffffffffffffffffffffffffffffffffffffffff16815260200190815260200160002061012060405190810160405290816000820160009054906101000a900473ffffffffffffffffffffffffffffffffffffffff1673ffffffffffffffffffffffffffffffffffffffff1673ffffffffffffffffffffffffffffffffffffffff168152602001600182018054600181600116156101000203166002900480601f0160208091040260200160405190810160405280929190818152602001828054600181600116156101000203166002900480156123ed5780601f106123c2576101008083540402835291602001916123ed565b820191906000526020600020905b8154815290600101906020018083116123d057829003601f168201915b50505050508152602001600282018054600181600116156101000203166002900480601f01602080910402602001604051908101604052809291908181526020018280546001816001161561010002031660029004801561248f5780601f106124645761010080835404028352916020019161248f565b820191906000526020600020905b81548152906001019060200180831161247257829003601f168201915b50505050508152602001600382018054600181600116156101000203166002900480601f0160208091040260200160405190810160405280929190818152602001828054600181600116156101000203166002900480156125315780601f1061250657610100808354040283529160200191612531565b820191906000526020600020905b81548152906001019060200180831161251457829003601f168201915b5050505050815260200160048201548152602001600682015481526020016007820160009054906101000a900473ffffffffffffffffffffffffffffffffffffffff1673ffffffffffffffffffffffffffffffffffffffff1673ffffffffffffffffffffffffffffffffffffffff16815260200160088201548152602001600982015481525050905081600001518260200151836060015183602001518460400151866040015187608001518860a001518696508595508494508393508292509950995099509950995099509950995050509295985092959890939650565b60046020528060005260406000206000915090508060000160009054906101000a900473ffffffffffffffffffffffffffffffffffffffff1690806001018054600181600116156101000203166002900480601f0160208091040260200160405190810160405280929190818152602001828054600181600116156101000203166002900480156126e25780601f106126b7576101008083540402835291602001916126e2565b820191906000526020600020905b8154815290600101906020018083116126c557829003601f168201915b505050505090806002015490806003018054600181600116156101000203166002900480601f0160208091040260200160405190810160405280929190818152602001828054600181600116156101000203166002900480156127865780601f1061275b57610100808354040283529160200191612786565b820191906000526020600020905b81548152906001019060200180831161276957829003601f168201915b505050505090806004018054600181600116156101000203166002900480601f0160208091040260200160405190810160405280929190818152602001828054600181600116156101000203166002900480156128245780601f106127f957610100808354040283529160200191612824565b820191906000526020600020905b81548152906001019060200180831161280757829003601f168201915b5050505050908060050154908060060160009054906101000a900473ffffffffffffffffffffffffffffffffffffffff16908060070154908060080154905089565b60017f01000000000000000000000000000000000000000000000000000000000000000281565b612895614e11565b60037f0100000000000000000000000000000000000000000000000000000000000000027effffffffffffffffffffffffffffffffffffffffffffffffffffffffffffff1916600360003373ffffffffffffffffffffffffffffffffffffffff1673ffffffffffffffffffffffffffffffffffffffff16815260200190815260200160002060009054906101000a90047f0100000000000000000000000000000000000000000000000000000000000000027effffffffffffffffffffffffffffffffffffffffffffffffffffffffffffff191614151561297557600080fd5b600560003373ffffffffffffffffffffffffffffffffffffffff1673ffffffffffffffffffffffffffffffffffffffff16815260200190815260200160002061012060405190810160405290816000820160009054906101000a900473ffffffffffffffffffffffffffffffffffffffff1673ffffffffffffffffffffffffffffffffffffffff1673ffffffffffffffffffffffffffffffffffffffff168152602001600182018054600181600116156101000203166002900480601f016020809104026020016040519081016040528092919081815260200182805460018160011615610100020316600290048015612ab05780601f10612a8557610100808354040283529160200191612ab0565b820191906000526020600020905b815481529060010190602001808311612a9357829003601f168201915b50505050508152602001600282018054600181600116156101000203166002900480601f016020809104026020016040519081016040528092919081815260200182805460018160011615610100020316600290048015612b525780601f10612b2757610100808354040283529160200191612b52565b820191906000526020600020905b815481529060010190602001808311612b3557829003601f168201915b50505050508152602001600382018054600181600116156101000203166002900480601f016020809104026020016040519081016040528092919081815260200182805460018160011615610100020316600290048015612bf45780601f10612bc957610100808354040283529160200191612bf4565b820191906000526020600020905b815481529060010190602001808311612bd757829003601f168201915b5050505050815260200160048201548152602001600682015481526020016007820160009054906101000a900473ffffffffffffffffffffffffffffffffffffffff1673ffffffffffffffffffffffffffffffffffffffff1673ffffffffffffffffffffffffffffffffffffffff16815260200160088201548152602001600982015481525050905082816060018190525081816080018181525050428161010001818152505080600560003373ffffffffffffffffffffffffffffffffffffffff1673ffffffffffffffffffffffffffffffffffffffff16815260200190815260200160002060008201518160000160006101000a81548173ffffffffffffffffffffffffffffffffffffffff021916908373ffffffffffffffffffffffffffffffffffffffff1602179055506020820151816001019080519060200190612d3e929190614e8a565b506040820151816002019080519060200190612d5b929190614e8a565b506060820151816003019080519060200190612d78929190614e8a565b506080820151816004015560a0820151816006015560c08201518160070160006101000a81548173ffffffffffffffffffffffffffffffffffffffff021916908373ffffffffffffffffffffffffffffffffffffffff16021790555060e082015181600801556101008201518160090155905050505050565b60027f01000000000000000000000000000000000000000000000000000000000000000281565b60056020528060005260406000206000915090508060000160009054906101000a900473ffffffffffffffffffffffffffffffffffffffff1690806001018054600181600116156101000203166002900480601f016020809104026020016040519081016040528092919081815260200182805460018160011615610100020316600290048015612eea5780601f10612ebf57610100808354040283529160200191612eea565b820191906000526020600020905b815481529060010190602001808311612ecd57829003601f168201915b505050505090806002018054600181600116156101000203166002900480601f016020809104026020016040519081016040528092919081815260200182805460018160011615610100020316600290048015612f885780601f10612f5d57610100808354040283529160200191612f88565b820191906000526020600020905b815481529060010190602001808311612f6b57829003601f168201915b505050505090806003018054600181600116156101000203166002900480601f0160208091040260200160405190810160405280929190818152602001828054600181600116156101000203166002900480156130265780601f10612ffb57610100808354040283529160200191613026565b820191906000526020600020905b81548152906001019060200180831161300957829003601f168201915b5050505050908060040154908060060154908060070160009054906101000a900473ffffffffffffffffffffffffffffffffffffffff16908060080154908060090154905089565b60068181548110151561307d57fe5b9060005260206000209060060201600091509050806000015490806001018054600181600116156101000203166002900480601f01602080910402602001604051908101604052809291908181526020018280546001816001161561010002031660029004801561312f5780601f106131045761010080835404028352916020019161312f565b820191906000526020600020905b81548152906001019060200180831161311257829003601f168201915b505050505090806002018054600181600116156101000203166002900480601f0160208091040260200160405190810160405280929190818152602001828054600181600116156101000203166002900480156131cd5780601f106131a2576101008083540402835291602001916131cd565b820191906000526020600020905b8154815290600101906020018083116131b057829003601f168201915b505050505090806003018054600181600116156101000203166002900480601f01602080910402602001604051908101604052809291908181526020018280546001816001161561010002031660029004801561326b5780601f106132405761010080835404028352916020019161326b565b820191906000526020600020905b81548152906001019060200180831161324e57829003601f168201915b5050505050908060040160009054906101000a900473ffffffffffffffffffffffffffffffffffffffff16908060050154905086565b6007818154811015156132b057fe5b90600052602060002090600902016000915090508060000160009054906101000a900473ffffffffffffffffffffffffffffffffffffffff1690806001018054600181600116156101000203166002900480601f0160208091040260200160405190810160405280929190818152602001828054600181600116156101000203166002900480156133825780601f1061335757610100808354040283529160200191613382565b820191906000526020600020905b81548152906001019060200180831161336557829003601f168201915b505050505090806002015490806003018054600181600116156101000203166002900480601f0160208091040260200160405190810160405280929190818152602001828054600181600116156101000203166002900480156134265780601f106133fb57610100808354040283529160200191613426565b820191906000526020600020905b81548152906001019060200180831161340957829003601f168201915b505050505090806004018054600181600116156101000203166002900480601f0160208091040260200160405190810160405280929190818152602001828054600181600116156101000203166002900480156134c45780601f10613499576101008083540402835291602001916134c4565b820191906000526020600020905b8154815290600101906020018083116134a757829003601f168201915b5050505050908060050154908060060160009054906101000a900473ffffffffffffffffffffffffffffffffffffffff16908060070154908060080154905089565b61350e614f0a565b60027f0100000000000000000000000000000000000000000000000000000000000000027effffffffffffffffffffffffffffffffffffffffffffffffffffffffffffff1916600360003373ffffffffffffffffffffffffffffffffffffffff1673ffffffffffffffffffffffffffffffffffffffff16815260200190815260200160002060009054906101000a90047f0100000000000000000000000000000000000000000000000000000000000000027effffffffffffffffffffffffffffffffffffffffffffffffffffffffffffff19161415156135ee57600080fd5b600460003373ffffffffffffffffffffffffffffffffffffffff1673ffffffffffffffffffffffffffffffffffffffff16815260200190815260200160002061012060405190810160405290816000820160009054906101000a900473ffffffffffffffffffffffffffffffffffffffff1673ffffffffffffffffffffffffffffffffffffffff1673ffffffffffffffffffffffffffffffffffffffff168152602001600182018054600181600116156101000203166002900480601f0160208091040260200160405190810160405280929190818152602001828054600181600116156101000203166002900480156137295780601f106136fe57610100808354040283529160200191613729565b820191906000526020600020905b81548152906001019060200180831161370c57829003601f168201915b5050505050815260200160028201548152602001600382018054600181600116156101000203166002900480601f0160208091040260200160405190810160405280929190818152602001828054600181600116156101000203166002900480156137d55780601f106137aa576101008083540402835291602001916137d5565b820191906000526020600020905b8154815290600101906020018083116137b857829003601f168201915b50505050508152602001600482018054600181600116156101000203166002900480601f0160208091040260200160405190810160405280929190818152602001828054600181600116156101000203166002900480156138775780601f1061384c57610100808354040283529160200191613877565b820191906000526020600020905b81548152906001019060200180831161385a57829003601f168201915b50505050508152602001600582015481526020016006820160009054906101000a900473ffffffffffffffffffffffffffffffffffffffff1673ffffffffffffffffffffffffffffffffffffffff1673ffffffffffffffffffffffffffffffffffffffff16815260200160078201548152602001600882015481525050905083816040018181525050828160600181905250818160800181905250428161010001818152505080600460003373ffffffffffffffffffffffffffffffffffffffff1673ffffffffffffffffffffffffffffffffffffffff16815260200190815260200160002060008201518160000160006101000a81548173ffffffffffffffffffffffffffffffffffffffff021916908373ffffffffffffffffffffffffffffffffffffffff16021790555060208201518160010190805190602001906139c0929190614e8a565b506040820151816002015560608201518160030190805190602001906139e7929190614e8a565b506080820151816004019080519060200190613a04929190614e8a565b5060a0820151816005015560c08201518160060160006101000a81548173ffffffffffffffffffffffffffffffffffffffff021916908373ffffffffffffffffffffffffffffffffffffffff16021790555060e08201518160070155610100820151816008015590505050505050565b6000809054906101000a900473ffffffffffffffffffffffffffffffffffffffff1681565b600060017f0100000000000000000000000000000000000000000000000000000000000000027effffffffffffffffffffffffffffffffffffffffffffffffffffffffffffff1916600360008473ffffffffffffffffffffffffffffffffffffffff1673ffffffffffffffffffffffffffffffffffffffff16815260200190815260200160002060009054906101000a90047f0100000000000000000000000000000000000000000000000000000000000000027effffffffffffffffffffffffffffffffffffffffffffffffffffffffffffff19161415613b7e5760659050613d49565b60027f0100000000000000000000000000000000000000000000000000000000000000027effffffffffffffffffffffffffffffffffffffffffffffffffffffffffffff1916600360008473ffffffffffffffffffffffffffffffffffffffff1673ffffffffffffffffffffffffffffffffffffffff16815260200190815260200160002060009054906101000a90047f0100000000000000000000000000000000000000000000000000000000000000027effffffffffffffffffffffffffffffffffffffffffffffffffffffffffffff19161415613c615760669050613d49565b60037f0100000000000000000000000000000000000000000000000000000000000000027effffffffffffffffffffffffffffffffffffffffffffffffffffffffffffff1916600360008473ffffffffffffffffffffffffffffffffffffffff1673ffffffffffffffffffffffffffffffffffffffff16815260200190815260200160002060009054906101000a90047f0100000000000000000000000000000000000000000000000000000000000000027effffffffffffffffffffffffffffffffffffffffffffffffffffffffffffff19161415613d445760679050613d49565b606490505b919050565b606060006060806060600080613d62614f83565b613d6a614e11565b600092505b600680549050831115156144f857600683815481101515613d8c57fe5b906000526020600020906006020160c0604051908101604052908160008201548152602001600182018054600181600116156101000203166002900480601f016020809104026020016040519081016040528092919081815260200182805460018160011615610100020316600290048015613e495780601f10613e1e57610100808354040283529160200191613e49565b820191906000526020600020905b815481529060010190602001808311613e2c57829003601f168201915b50505050508152602001600282018054600181600116156101000203166002900480601f016020809104026020016040519081016040528092919081815260200182805460018160011615610100020316600290048015613eeb5780601f10613ec057610100808354040283529160200191613eeb565b820191906000526020600020905b815481529060010190602001808311613ece57829003601f168201915b50505050508152602001600382018054600181600116156101000203166002900480601f016020809104026020016040519081016040528092919081815260200182805460018160011615610100020316600290048015613f8d5780601f10613f6257610100808354040283529160200191613f8d565b820191906000526020600020905b815481529060010190602001808311613f7057829003601f168201915b505050505081526020016004820160009054906101000a900473ffffffffffffffffffffffffffffffffffffffff1673ffffffffffffffffffffffffffffffffffffffff1673ffffffffffffffffffffffffffffffffffffffff1681526020016005820154815250509150896040516020018082805190602001908083835b602083101515614031578051825260208201915060208101905060208303925061400c565b6001836020036101000a0380198251168184511680821785525050505050509050019150506040516020818303038152906040526040518082805190602001908083835b60208310151561409a5780518252602082019150602081019050602083039250614075565b6001836020036101000a03801982511681845116808217855250505050505090500191505060405180910390206000191682606001516040516020018082805190602001908083835b60208310151561410857805182526020820191506020810190506020830392506140e3565b6001836020036101000a0380198251168184511680821785525050505050509050019150506040516020818303038152906040526040518082805190602001908083835b602083101515614171578051825260208201915060208101905060208303925061414c565b6001836020036101000a03801982511681845116808217855250505050505090500191505060405180910390206000191614156144eb57600560008c73ffffffffffffffffffffffffffffffffffffffff1673ffffffffffffffffffffffffffffffffffffffff16815260200190815260200160002061012060405190810160405290816000820160009054906101000a900473ffffffffffffffffffffffffffffffffffffffff1673ffffffffffffffffffffffffffffffffffffffff1673ffffffffffffffffffffffffffffffffffffffff168152602001600182018054600181600116156101000203166002900480601f0160208091040260200160405190810160405280929190818152602001828054600181600116156101000203166002900480156142e35780601f106142b8576101008083540402835291602001916142e3565b820191906000526020600020905b8154815290600101906020018083116142c657829003601f168201915b50505050508152602001600282018054600181600116156101000203166002900480601f0160208091040260200160405190810160405280929190818152602001828054600181600116156101000203166002900480156143855780601f1061435a57610100808354040283529160200191614385565b820191906000526020600020905b81548152906001019060200180831161436857829003601f168201915b50505050508152602001600382018054600181600116156101000203166002900480601f0160208091040260200160405190810160405280929190818152602001828054600181600116156101000203166002900480156144275780601f106143fc57610100808354040283529160200191614427565b820191906000526020600020905b81548152906001019060200180831161440a57829003601f168201915b5050505050815260200160048201548152602001600682015481526020016007820160009054906101000a900473ffffffffffffffffffffffffffffffffffffffff1673ffffffffffffffffffffffffffffffffffffffff1673ffffffffffffffffffffffffffffffffffffffff168152602001600882015481526020016009820154815250509050816020015182608001518260200151836040015185604001518660a001518595508393508292508191509850985098509850985098506144f9565b8280600101935050613d6f565b5b5050509295509295509295565b7f312e302e3000000000000000000000000000000000000000000000000000000081565b6000614534614f83565b600060027f0100000000000000000000000000000000000000000000000000000000000000027effffffffffffffffffffffffffffffffffffffffffffffffffffffffffffff1916600360003373ffffffffffffffffffffffffffffffffffffffff1673ffffffffffffffffffffffffffffffffffffffff16815260200190815260200160002060009054906101000a90047f0100000000000000000000000000000000000000000000000000000000000000027effffffffffffffffffffffffffffffffffffffffffffffffffffffffffffff19161480156146e8575060037f0100000000000000000000000000000000000000000000000000000000000000027effffffffffffffffffffffffffffffffffffffffffffffffffffffffffffff1916600360008873ffffffffffffffffffffffffffffffffffffffff1673ffffffffffffffffffffffffffffffffffffffff16815260200190815260200160002060009054906101000a90047f0100000000000000000000000000000000000000000000000000000000000000027effffffffffffffffffffffffffffffffffffffffffffffffffffffffffffff1916145b15156146f357600080fd5b600560008773ffffffffffffffffffffffffffffffffffffffff1673ffffffffffffffffffffffffffffffffffffffff16815260200190815260200160002092506001836006015401826000018181525050600460003373ffffffffffffffffffffffffffffffffffffffff1673ffffffffffffffffffffffffffffffffffffffff1681526020019081526020016000206001018054600181600116156101000203166002900480601f01602080910402602001604051908101604052809291908181526020018280546001816001161561010002031660029004801561481b5780601f106147f05761010080835404028352916020019161481b565b820191906000526020600020905b8154815290600101906020018083116147fe57829003601f168201915b5050505050826020018190525084826040018190525083826060018190525033826080019073ffffffffffffffffffffffffffffffffffffffff16908173ffffffffffffffffffffffffffffffffffffffff1681525050428260a001818152505081836005016000856006015481526020019081526020016000206000820151816000015560208201518160010190805190602001906148bc929190614e8a565b5060408201518160020190805190602001906148d9929190614e8a565b5060608201518160030190805190602001906148f6929190614e8a565b5060808201518160040160006101000a81548173ffffffffffffffffffffffffffffffffffffffff021916908373ffffffffffffffffffffffffffffffffffffffff16021790555060a0820151816005015590505060018360060160008282540192505081905550600160068054905001826000018181525050600682908060018154018082558091505090600182039060005260206000209060060201600090919290919091506000820151816000015560208201518160010190805190602001906149c4929190614e8a565b5060408201518160020190805190602001906149e1929190614e8a565b5060608201518160030190805190602001906149fe929190614e8a565b5060808201518160040160006101000a81548173ffffffffffffffffffffffffffffffffffffffff021916908373ffffffffffffffffffffffffffffffffffffffff16021790555060a08201518160050155505050600460003373ffffffffffffffffffffffffffffffffffffffff1673ffffffffffffffffffffffffffffffffffffffff16815260200190815260200160002090506001816005016000828254019250508190555082600560008873ffffffffffffffffffffffffffffffffffffffff1673ffffffffffffffffffffffffffffffffffffffff1681526020019081526020016000206000820160009054906101000a900473ffffffffffffffffffffffffffffffffffffffff168160000160006101000a81548173ffffffffffffffffffffffffffffffffffffffff021916908373ffffffffffffffffffffffffffffffffffffffff16021790555060018201816001019080546001816001161561010002031660029004614b75929190614fd0565b5060028201816002019080546001816001161561010002031660029004614b9d929190614fd0565b5060038201816003019080546001816001161561010002031660029004614bc5929190614fd0565b5060048201548160040155600682015481600601556007820160009054906101000a900473ffffffffffffffffffffffffffffffffffffffff168160070160006101000a81548173ffffffffffffffffffffffffffffffffffffffff021916908373ffffffffffffffffffffffffffffffffffffffff160217905550600882015481600801556009820154816009015590505080600460003373ffffffffffffffffffffffffffffffffffffffff1673ffffffffffffffffffffffffffffffffffffffff1681526020019081526020016000206000820160009054906101000a900473ffffffffffffffffffffffffffffffffffffffff168160000160006101000a81548173ffffffffffffffffffffffffffffffffffffffff021916908373ffffffffffffffffffffffffffffffffffffffff16021790555060018201816001019080546001816001161561010002031660029004614d26929190614fd0565b506002820154816002015560038201816003019080546001816001161561010002031660029004614d58929190614fd0565b5060048201816004019080546001816001161561010002031660029004614d80929190614fd0565b50600582015481600501556006820160009054906101000a900473ffffffffffffffffffffffffffffffffffffffff168160060160006101000a81548173ffffffffffffffffffffffffffffffffffffffff021916908373ffffffffffffffffffffffffffffffffffffffff1602179055506007820154816007015560088201548160080155905050505050505050565b61012060405190810160405280600073ffffffffffffffffffffffffffffffffffffffff1681526020016060815260200160608152602001606081526020016000815260200160008152602001600073ffffffffffffffffffffffffffffffffffffffff16815260200160008152602001600081525090565b828054600181600116156101000203166002900490600052602060002090601f016020900481019282601f10614ecb57805160ff1916838001178555614ef9565b82800160010185558215614ef9579182015b82811115614ef8578251825591602001919060010190614edd565b5b509050614f069190615057565b5090565b61012060405190810160405280600073ffffffffffffffffffffffffffffffffffffffff1681526020016060815260200160008152602001606081526020016060815260200160008152602001600073ffffffffffffffffffffffffffffffffffffffff16815260200160008152602001600081525090565b60c06040519081016040528060008152602001606081526020016060815260200160608152602001600073ffffffffffffffffffffffffffffffffffffffff168152602001600081525090565b828054600181600116156101000203166002900490600052602060002090601f016020900481019282601f106150095780548555615046565b8280016001018555821561504657600052602060002091601f016020900482015b8281111561504557825482559160010191906001019061502a565b5b5090506150539190615057565b5090565b61507991905b8082111561507557600081600090555060010161505d565b5090565b905600a165627a7a723058202e22c67b8490d602b7b5a215d507dfbf4927f67fd813ea9b3c383bae796eac230029",
  "source": "/*\r\n    @author: Jaime Jesus Alvarado Perez\r\n    @version: 1.0.0\r\n    @date: 10/08/2019\r\n*/\r\npragma solidity 0.4.24;\r\n\r\ncontract DigiCert{\r\n    \r\n   //Estructuras de los usuarios\r\n    struct Organization {\r\n        address organization_address;//direccion de la organization\r\n        string name_organization;//nombre de la organizacion\r\n        uint256 phone;//telefono\r\n        string email;//correo de la institucion\r\n        string web_page;//pagina web de la organizacion\r\n        uint256 qt_certificates_issued;//cantidad de certificados emitidos\r\n        address added_by;//aadido por...\r\n        uint256 added_timestamp;//fecha que fue aadido\r\n        uint256 updated_timestamp;//fecha en la que se actualizo la informacion\r\n    }\r\n\r\n    struct Student {\r\n        address student_address;//direccion del estudiante\r\n        string name_student;//nombre del Estudiante\r\n        string lastname_student;//apellido del Estudiante\r\n        string email;//correo\r\n        uint256 phone;//telefono\r\n        mapping (uint256 => Certificate) certificates;//mapping de los certificados que posee el estudiante\r\n        uint256 qt_certificates;//cantidad de certificados que posee el estudiante\r\n        address added_by;//aadido por...\r\n        uint256 added_timestamp;//fecha en que se aadio al estudiante\r\n        uint256 updated_timestamp;//ultima fecha de actualizacion\r\n    }\r\n    \r\n    struct Certificate {\r\n        uint256 id;//id del certificado\r\n        string organization; //nombre de la organizacion\r\n        string title;//descripcion del certificado\r\n        //string certificate_owner;//propietario del significado\r\n        string ipfs_hash;//hash del protocolo ipfs donde se alojo\r\n        address added_by;//aadido por ...\r\n        uint256 added_timestamp;//fecha en la que se aadio el certificado\r\n    }\r\n  \r\n    // Constantes\r\n    bytes1 public constant T_ADMIN = 0x01;//administrador\r\n    bytes1 public constant T_ORGANIZATION = 0x02;//organizacion\r\n    bytes1 public constant T_STUDENT = 0x03;//estudiante\r\n    bytes10 public constant VERSION = \"1.0.0\";//version del contrato\r\n\r\n    address public _owner;//persona que desplego el contrato\r\n    uint256 public _created_timestamp;//fecha de creacion del contrato\r\n    uint256 public _qt_users = 0;//cantidad de usuarios que posee el contrato\r\n    \r\n    //mapeo de usuarios: 1-Admin, 2-Organizaciones, 3-Estudiantes\r\n    \r\n    mapping (address => bytes1) public _users;//mapping de usuarios\r\n    mapping (address => Organization) public _organizations;//mapping de organizaciones\r\n    mapping (address => Student) public _students;//mapping de estudiantes\r\n    \r\n    Certificate[] public certificates_hashes;\r\n    Organization [] public organizations_added;\r\n    \r\n    //Constructor\r\n    \r\n    constructor() public payable\r\n    {\r\n        _owner = msg.sender;\r\n        _created_timestamp = block.timestamp;\r\n\r\n        _users[msg.sender] = T_ADMIN;\r\n        _qt_users++;\r\n    }\r\n    \r\n    /*\r\n    addOrganization:\r\n    Metodo para insertar una nueva organizacion.\r\n    El administrador solo puede aadir organizaciones\r\n    @parametros: address -> paddress  (Clave publica del usuario),\r\n                 string  -> _name_organization (nombre de la organizacion),\r\n                 string  -> _web_page (direccion de la pagina web de la organizacion)\r\n    */\r\n    function addOrganization(address paddress, string _name_organization) public payable\r\n    {\r\n      \r\n      require(_users[msg.sender]==T_ADMIN && _users[paddress]== 0x00);\r\n      \r\n      bytes1 user_type;\r\n      \r\n      user_type = T_ORGANIZATION;\r\n\r\n      Organization memory objOrganization;\r\n      \r\n      objOrganization.organization_address=paddress;\r\n      objOrganization.name_organization=_name_organization;\r\n      objOrganization.qt_certificates_issued = 0;\r\n      objOrganization.added_by = msg.sender;\r\n      objOrganization.added_timestamp = block.timestamp;\r\n      \r\n      organizations_added.push(objOrganization);\r\n\r\n      _organizations[paddress] = objOrganization;\r\n      \r\n      _users[paddress] = user_type;\r\n      _qt_users += 1;\r\n    }\r\n    \r\n    /*\r\n    addStudent:\r\n    Metodo para insertar un nuevo Estudiante.\r\n    Solo la organizacion puede aadir Estudiantes\r\n    @parametros: address -> paddress  (Clave publica del Estudiante),\r\n                 string  -> _name_student (nombre del Estudiante),\r\n                 string  -> _web_page (direccion de la pagina web de la organizacion)\r\n    */\r\n    \r\n    function addStudent(address paddress, string _name_student, string _lastname_student)public payable\r\n    {\r\n      require(_users[msg.sender]==T_ORGANIZATION && _users[paddress]== 0x00);\r\n    \r\n      bytes1 user_type;\r\n        \r\n      user_type = T_STUDENT;\r\n\r\n      Student memory objStudent;\r\n\r\n      objStudent.student_address=paddress;\r\n      objStudent.name_student=_name_student;\r\n      objStudent.lastname_student=_lastname_student;\r\n      objStudent.qt_certificates = 0;\r\n      objStudent.added_by = msg.sender;\r\n      objStudent.added_timestamp = block.timestamp;\r\n\r\n      _students[paddress] = objStudent;\r\n      \r\n      _users[paddress] = user_type;\r\n      _qt_users += 1;\r\n    }\r\n    \r\n    /*\r\n    Aadir Certificado: addCertificate:\r\n    Metodo para insertar un nuevo certificado de un Estudiante.\r\n    Solo las organizaciones pueden aadir certificados.\r\n\r\n    @parametros:    address ->  pstudent(clave publica del Estudiante),    \r\n                    string  ->  _description(descripcion del certificado),\r\n                    string  ->  ipfs_hash (Hash IPFS del certificado .pdf)\r\n    */\r\n    \r\n    \r\n  function addCertificate(address pstudent, string _title, string ipfs_hash) public payable\r\n  {\r\n    require(_users[msg.sender] == T_ORGANIZATION && _users[pstudent] == T_STUDENT);\r\n\r\n    Student storage objStudent = _students[pstudent];\r\n    Certificate memory objCertificate;\r\n\r\n    objCertificate.id = objStudent.qt_certificates + 1;\r\n    objCertificate.organization =_organizations[msg.sender].name_organization;\r\n    objCertificate.title = _title;\r\n    objCertificate.ipfs_hash = ipfs_hash;\r\n    objCertificate.added_by = msg.sender;\r\n    objCertificate.added_timestamp = block.timestamp;\r\n\r\n    objStudent.certificates[objStudent.qt_certificates] = objCertificate;\r\n    objStudent.qt_certificates += 1;\r\n    \r\n    objCertificate.id=certificates_hashes.length+1;\r\n    certificates_hashes.push(objCertificate);\r\n\r\n    Organization storage objOrganization = _organizations[msg.sender];\r\n    objOrganization.qt_certificates_issued += 1;\r\n\r\n    _students[pstudent] = objStudent;\r\n    _organizations[msg.sender] = objOrganization;\r\n  }\r\n  \r\n  /* setStudent / setOrganization:\r\n    Method to update the information of a organization or a student.\r\n    Only the organization or the student can update their details.\r\n\r\n    @param string pipfs_hash IPFS hash with the details of the student*/\r\n  \r\n  function setStudent(string _email, uint256 _phone) public payable\r\n  {\r\n    require(_users[msg.sender] == T_STUDENT);\r\n\r\n    Student memory objStudent = _students[msg.sender];\r\n\r\n    objStudent.email = _email;\r\n    objStudent.phone = _phone;\r\n    objStudent.updated_timestamp = block.timestamp;\r\n\r\n    _students[msg.sender] = objStudent;\r\n  }\r\n\r\n  function setOrganization(uint256 _phone, string _email, string _web_page) public payable\r\n  {\r\n    require(_users[msg.sender] == T_ORGANIZATION);\r\n\r\n    Organization memory objOrganization = _organizations[msg.sender];\r\n\r\n    objOrganization.phone = _phone;\r\n    objOrganization.email = _email;\r\n    objOrganization.web_page = _web_page;\r\n    objOrganization.updated_timestamp = block.timestamp;\r\n\r\n    _organizations[msg.sender] = objOrganization;\r\n  }\r\n  \r\n  /*\r\n    getCertificateEstudent:\r\n    Metodo para conseguir un especifico certificado de un Estudiante.\r\n\r\n    @parametros: address ->pstudent (clave publica del Estudiante)\r\n\r\n    @return:    uint256 ->  Numero de certificado.\r\n                string  ->  Nombre de la organizacion.\r\n                string  ->  IPFS Hash.\r\n                string  ->  Nombre del propietario\r\n                string  ->  Apellido del propietario.\r\n                string  ->  titulo del Certificado.\r\n                address ->  Direccion de la organizacion.\r\n                uint256 ->  Fecha en la que el Certificado fue Emitido.\r\n    */  \r\n  function getCertificateEstudent(address pstudent, uint256 pcertificate) public view returns (uint256, string, string, string, string, string, address, uint256)\r\n  {\r\n    require(_users[pstudent] == T_STUDENT);\r\n    Certificate memory objCertificate = _students[pstudent].certificates[pcertificate];\r\n    Student memory objStudent = _students[pstudent];\r\n    return (objCertificate.id, objCertificate.organization, objCertificate.ipfs_hash, objStudent.name_student, objStudent.lastname_student, objCertificate.title, objCertificate.added_by, objCertificate.added_timestamp);\r\n  }\r\n  \r\n  /*\r\n    getCertificateThird\r\n    Metodo para corroborar la autenticidad de un certificado por terceros\r\n    @parametros:    string ->  pcertificate (clave publica del certificado)\r\n    \r\n    @return:        string  ->  nombre de la institucion que emitio el certificado\r\n                    address ->  direccion publica de la institucion\r\n                    string  ->  nombre del Estudiante al que pertenece el certificado\r\n                    string  ->  apellido del Estudiante\r\n                    string  ->  titulo del certificado\r\n                    uint256 ->  fecha en la que se emitio el certificado\r\n  */\r\n  function getCertificateThird(address pstudent, string _ipfs_hash) public view returns (string, address, string, string, string, uint256)\r\n  {\r\n      for(uint i=0; i<=certificates_hashes.length; i++){\r\n          Certificate memory objCertificate = certificates_hashes[i];\r\n          if(keccak256(abi.encodePacked(objCertificate.ipfs_hash)) == keccak256(abi.encodePacked(_ipfs_hash)))\r\n          {\r\n              Student memory objStudent = _students[pstudent];\r\n              return (objCertificate.organization, objCertificate.added_by, objStudent.name_student, objStudent.lastname_student, objCertificate.title, objCertificate.added_timestamp);\r\n          }\r\n      }\r\n  }\r\n  \r\n  function totalOrganizations() public view returns (uint){\r\n      return organizations_added.length;\r\n  }\r\n  \r\n  function userType(address uaddress) public view returns (uint){\r\n      if(_users[uaddress]==T_ADMIN){\r\n          return 101;\r\n      }if(_users[uaddress]==T_ORGANIZATION){\r\n          return 102;\r\n      }if(_users[uaddress]==T_STUDENT){\r\n          return 103;\r\n      }else\r\n      return 100;\r\n  }\r\n}",
  "sourcePath": "C:\\Users\\XYLON\\Desktop\\Prototipo3\\digicert\\contracts\\DigiCert.sol",
  "compiler": {
    "name": "solc",
    "version": "0.4.24+commit.e67f0147.Emscripten.clang"
  },
  "schemaVersion": "2.0.1",
  "updatedAt": "2019-12-10T15:27:48.581Z"
}