{
  "contractName": "DigiCert",
  "abi": [
    {
      "constant": true,
      "inputs": [],
      "name": "_qt_users",
      "outputs": [
        {
          "name": "",
          "type": "uint256"
        }
      ],
      "payable": false,
      "stateMutability": "view",
      "type": "function"
    },
    {
      "constant": true,
      "inputs": [
        {
          "name": "",
          "type": "address"
        }
      ],
      "name": "_users",
      "outputs": [
        {
          "name": "",
          "type": "bytes1"
        }
      ],
      "payable": false,
      "stateMutability": "view",
      "type": "function"
    },
    {
      "constant": true,
      "inputs": [],
      "name": "_created_timestamp",
      "outputs": [
        {
          "name": "",
          "type": "uint256"
        }
      ],
      "payable": false,
      "stateMutability": "view",
      "type": "function"
    },
    {
      "constant": true,
      "inputs": [],
      "name": "T_STUDENT",
      "outputs": [
        {
          "name": "",
          "type": "bytes1"
        }
      ],
      "payable": false,
      "stateMutability": "view",
      "type": "function"
    },
    {
      "constant": true,
      "inputs": [
        {
          "name": "",
          "type": "address"
        }
      ],
      "name": "_organizations",
      "outputs": [
        {
          "name": "name_organization",
          "type": "string"
        },
        {
          "name": "phone",
          "type": "uint256"
        },
        {
          "name": "email",
          "type": "string"
        },
        {
          "name": "web_page",
          "type": "string"
        },
        {
          "name": "qt_certificates_issued",
          "type": "uint256"
        },
        {
          "name": "added_by",
          "type": "address"
        },
        {
          "name": "added_timestamp",
          "type": "uint256"
        },
        {
          "name": "updated_timestamp",
          "type": "uint256"
        }
      ],
      "payable": false,
      "stateMutability": "view",
      "type": "function"
    },
    {
      "constant": true,
      "inputs": [],
      "name": "T_ADMIN",
      "outputs": [
        {
          "name": "",
          "type": "bytes1"
        }
      ],
      "payable": false,
      "stateMutability": "view",
      "type": "function"
    },
    {
      "constant": true,
      "inputs": [],
      "name": "T_ORGANIZATION",
      "outputs": [
        {
          "name": "",
          "type": "bytes1"
        }
      ],
      "payable": false,
      "stateMutability": "view",
      "type": "function"
    },
    {
      "constant": true,
      "inputs": [
        {
          "name": "",
          "type": "address"
        }
      ],
      "name": "_students",
      "outputs": [
        {
          "name": "name_student",
          "type": "string"
        },
        {
          "name": "lastname_student",
          "type": "string"
        },
        {
          "name": "email",
          "type": "string"
        },
        {
          "name": "phone",
          "type": "uint256"
        },
        {
          "name": "qt_certificates",
          "type": "uint256"
        },
        {
          "name": "added_by",
          "type": "address"
        },
        {
          "name": "added_timestamp",
          "type": "uint256"
        },
        {
          "name": "updated_timestamp",
          "type": "uint256"
        }
      ],
      "payable": false,
      "stateMutability": "view",
      "type": "function"
    },
    {
      "constant": true,
      "inputs": [
        {
          "name": "",
          "type": "uint256"
        }
      ],
      "name": "certificates_hashes",
      "outputs": [
        {
          "name": "id",
          "type": "uint256"
        },
        {
          "name": "organization",
          "type": "string"
        },
        {
          "name": "title",
          "type": "string"
        },
        {
          "name": "ipfs_hash",
          "type": "string"
        },
        {
          "name": "added_by",
          "type": "address"
        },
        {
          "name": "added_timestamp",
          "type": "uint256"
        }
      ],
      "payable": false,
      "stateMutability": "view",
      "type": "function"
    },
    {
      "constant": true,
      "inputs": [],
      "name": "_owner",
      "outputs": [
        {
          "name": "",
          "type": "address"
        }
      ],
      "payable": false,
      "stateMutability": "view",
      "type": "function"
    },
    {
      "constant": true,
      "inputs": [],
      "name": "VERSION",
      "outputs": [
        {
          "name": "",
          "type": "bytes10"
        }
      ],
      "payable": false,
      "stateMutability": "view",
      "type": "function"
    },
    {
      "inputs": [],
      "payable": true,
      "stateMutability": "payable",
      "type": "constructor"
    },
    {
      "constant": false,
      "inputs": [
        {
          "name": "paddress",
          "type": "address"
        },
        {
          "name": "_name_organization",
          "type": "string"
        }
      ],
      "name": "addOrganization",
      "outputs": [],
      "payable": true,
      "stateMutability": "payable",
      "type": "function"
    },
    {
      "constant": false,
      "inputs": [
        {
          "name": "paddress",
          "type": "address"
        },
        {
          "name": "_name_student",
          "type": "string"
        },
        {
          "name": "_lastname_student",
          "type": "string"
        }
      ],
      "name": "addStudent",
      "outputs": [],
      "payable": true,
      "stateMutability": "payable",
      "type": "function"
    },
    {
      "constant": false,
      "inputs": [
        {
          "name": "pstudent",
          "type": "address"
        },
        {
          "name": "_title",
          "type": "string"
        },
        {
          "name": "ipfs_hash",
          "type": "string"
        }
      ],
      "name": "addCertificate",
      "outputs": [],
      "payable": true,
      "stateMutability": "payable",
      "type": "function"
    },
    {
      "constant": false,
      "inputs": [
        {
          "name": "_email",
          "type": "string"
        },
        {
          "name": "_phone",
          "type": "uint256"
        }
      ],
      "name": "setStudent",
      "outputs": [],
      "payable": true,
      "stateMutability": "payable",
      "type": "function"
    },
    {
      "constant": false,
      "inputs": [
        {
          "name": "_phone",
          "type": "uint256"
        },
        {
          "name": "_email",
          "type": "string"
        },
        {
          "name": "_web_page",
          "type": "string"
        }
      ],
      "name": "setOrganization",
      "outputs": [],
      "payable": true,
      "stateMutability": "payable",
      "type": "function"
    },
    {
      "constant": true,
      "inputs": [
        {
          "name": "pstudent",
          "type": "address"
        },
        {
          "name": "pcertificate",
          "type": "uint256"
        }
      ],
      "name": "getCertificateEstudent",
      "outputs": [
        {
          "name": "",
          "type": "uint256"
        },
        {
          "name": "",
          "type": "string"
        },
        {
          "name": "",
          "type": "string"
        },
        {
          "name": "",
          "type": "string"
        },
        {
          "name": "",
          "type": "string"
        },
        {
          "name": "",
          "type": "string"
        },
        {
          "name": "",
          "type": "address"
        },
        {
          "name": "",
          "type": "uint256"
        }
      ],
      "payable": false,
      "stateMutability": "view",
      "type": "function"
    },
    {
      "constant": true,
      "inputs": [
        {
          "name": "pstudent",
          "type": "address"
        },
        {
          "name": "_ipfs_hash",
          "type": "string"
        }
      ],
      "name": "getCertificateThird",
      "outputs": [
        {
          "name": "",
          "type": "string"
        },
        {
          "name": "",
          "type": "address"
        },
        {
          "name": "",
          "type": "string"
        },
        {
          "name": "",
          "type": "string"
        },
        {
          "name": "",
          "type": "string"
        },
        {
          "name": "",
          "type": "uint256"
        }
      ],
      "payable": false,
      "stateMutability": "view",
      "type": "function"
    }
  ],
  "bytecode": "0x60806040526000600255336000806101000a81548173ffffffffffffffffffffffffffffffffffffffff021916908373ffffffffffffffffffffffffffffffffffffffff1602179055504260018190555060017f010000000000000000000000000000000000000000000000000000000000000002600360003373ffffffffffffffffffffffffffffffffffffffff1673ffffffffffffffffffffffffffffffffffffffff16815260200190815260200160002060006101000a81548160ff02191690837f0100000000000000000000000000000000000000000000000000000000000000900402179055506002600081548092919060010191905055506142fb8061010c6000396000f3006080604052600436106100fc576000357c0100000000000000000000000000000000000000000000000000000000900463ffffffff1680630f160ac21461010157806321a829c61461012c5780633cacd7d6146101ee57806344fc2923146102895780634eb841bc146102b45780636867478a1461032357806368bb6cae1461039f57806371fc2d2e14610656578063981e1aa3146108395780639b4d52dd146108a85780639c68ce2d1461090e5780639e1657401461097d578063a8d1e25a14610b60578063b006637a14610d1f578063b2bdfa7b14610dcb578063e7f6a70114610e22578063ffa1ad74146110a2578063ffecb92f146110ff575b600080fd5b34801561010d57600080fd5b506101166111c1565b6040518082815260200191505060405180910390f35b6101ec600480360381019080803573ffffffffffffffffffffffffffffffffffffffff169060200190929190803590602001908201803590602001908080601f0160208091040260200160405190810160405280939291908181526020018383808284378201915050505050509192919290803590602001908201803590602001908080601f01602080910402602001604051908101604052809392919081815260200183838082843782019150505050505091929192905050506111c7565b005b3480156101fa57600080fd5b5061022f600480360381019080803573ffffffffffffffffffffffffffffffffffffffff16906020019092919050505061158a565b60405180827effffffffffffffffffffffffffffffffffffffffffffffffffffffffffffff19167effffffffffffffffffffffffffffffffffffffffffffffffffffffffffffff1916815260200191505060405180910390f35b34801561029557600080fd5b5061029e6115c9565b6040518082815260200191505060405180910390f35b3480156102c057600080fd5b506102c96115cf565b60405180827effffffffffffffffffffffffffffffffffffffffffffffffffffffffffffff19167effffffffffffffffffffffffffffffffffffffffffffffffffffffffffffff1916815260200191505060405180910390f35b61039d600480360381019080803573ffffffffffffffffffffffffffffffffffffffff169060200190929190803590602001908201803590602001908080601f01602080910402602001604051908101604052809392919081815260200183838082843782019150505050505091929192905050506115f6565b005b3480156103ab57600080fd5b506103ea600480360381019080803573ffffffffffffffffffffffffffffffffffffffff169060200190929190803590602001909291905050506119af565b6040518089815260200180602001806020018060200180602001806020018873ffffffffffffffffffffffffffffffffffffffff1673ffffffffffffffffffffffffffffffffffffffff16815260200187815260200186810386528d818151815260200191508051906020019080838360005b8381101561047857808201518184015260208101905061045d565b50505050905090810190601f1680156104a55780820380516001836020036101000a031916815260200191505b5086810385528c818151815260200191508051906020019080838360005b838110156104de5780820151818401526020810190506104c3565b50505050905090810190601f16801561050b5780820380516001836020036101000a031916815260200191505b5086810384528b818151815260200191508051906020019080838360005b83811015610544578082015181840152602081019050610529565b50505050905090810190601f1680156105715780820380516001836020036101000a031916815260200191505b5086810383528a818151815260200191508051906020019080838360005b838110156105aa57808201518184015260208101905061058f565b50505050905090810190601f1680156105d75780820380516001836020036101000a031916815260200191505b50868103825289818151815260200191508051906020019080838360005b838110156106105780820151818401526020810190506105f5565b50505050905090810190601f16801561063d5780820380516001836020036101000a031916815260200191505b509d505050505050505050505050505060405180910390f35b34801561066257600080fd5b50610697600480360381019080803573ffffffffffffffffffffffffffffffffffffffff169060200190929190505050612065565b604051808060200189815260200180602001806020018881526020018773ffffffffffffffffffffffffffffffffffffffff1673ffffffffffffffffffffffffffffffffffffffff16815260200186815260200185815260200184810384528c818151815260200191508051906020019080838360005b8381101561072957808201518184015260208101905061070e565b50505050905090810190601f1680156107565780820380516001836020036101000a031916815260200191505b5084810383528a818151815260200191508051906020019080838360005b8381101561078f578082015181840152602081019050610774565b50505050905090810190601f1680156107bc5780820380516001836020036101000a031916815260200191505b50848103825289818151815260200191508051906020019080838360005b838110156107f55780820151818401526020810190506107da565b50505050905090810190601f1680156108225780820380516001836020036101000a031916815260200191505b509b50505050505050505050505060405180910390f35b34801561084557600080fd5b5061084e612295565b60405180827effffffffffffffffffffffffffffffffffffffffffffffffffffffffffffff19167effffffffffffffffffffffffffffffffffffffffffffffffffffffffffffff1916815260200191505060405180910390f35b61090c600480360381019080803590602001908201803590602001908080601f0160208091040260200160405190810160405280939291908181526020018383808284378201915050505050509192919290803590602001909291905050506122bc565b005b34801561091a57600080fd5b50610923612781565b60405180827effffffffffffffffffffffffffffffffffffffffffffffffffffffffffffff19167effffffffffffffffffffffffffffffffffffffffffffffffffffffffffffff1916815260200191505060405180910390f35b34801561098957600080fd5b506109be600480360381019080803573ffffffffffffffffffffffffffffffffffffffff1690602001909291905050506127a8565b604051808060200180602001806020018981526020018881526020018773ffffffffffffffffffffffffffffffffffffffff1673ffffffffffffffffffffffffffffffffffffffff16815260200186815260200185815260200184810384528c818151815260200191508051906020019080838360005b83811015610a50578082015181840152602081019050610a35565b50505050905090810190601f168015610a7d5780820380516001836020036101000a031916815260200191505b5084810383528b818151815260200191508051906020019080838360005b83811015610ab6578082015181840152602081019050610a9b565b50505050905090810190601f168015610ae35780820380516001836020036101000a031916815260200191505b5084810382528a818151815260200191508051906020019080838360005b83811015610b1c578082015181840152602081019050610b01565b50505050905090810190601f168015610b495780820380516001836020036101000a031916815260200191505b509b50505050505050505050505060405180910390f35b348015610b6c57600080fd5b50610b8b600480360381019080803590602001909291905050506129d8565b604051808781526020018060200180602001806020018673ffffffffffffffffffffffffffffffffffffffff1673ffffffffffffffffffffffffffffffffffffffff168152602001858152602001848103845289818151815260200191508051906020019080838360005b83811015610c11578082015181840152602081019050610bf6565b50505050905090810190601f168015610c3e5780820380516001836020036101000a031916815260200191505b50848103835288818151815260200191508051906020019080838360005b83811015610c77578082015181840152602081019050610c5c565b50505050905090810190601f168015610ca45780820380516001836020036101000a031916815260200191505b50848103825287818151815260200191508051906020019080838360005b83811015610cdd578082015181840152602081019050610cc2565b50505050905090810190601f168015610d0a5780820380516001836020036101000a031916815260200191505b50995050505050505050505060405180910390f35b610dc960048036038101908080359060200190929190803590602001908201803590602001908080601f0160208091040260200160405190810160405280939291908181526020018383808284378201915050505050509192919290803590602001908201803590602001908080601f0160208091040260200160405190810160405280939291908181526020018383808284378201915050505050509192919290505050612c0b565b005b348015610dd757600080fd5b50610de06130da565b604051808273ffffffffffffffffffffffffffffffffffffffff1673ffffffffffffffffffffffffffffffffffffffff16815260200191505060405180910390f35b348015610e2e57600080fd5b50610ea9600480360381019080803573ffffffffffffffffffffffffffffffffffffffff169060200190929190803590602001908201803590602001908080601f01602080910402602001604051908101604052809392919081815260200183838082843782019150505050505091929192905050506130ff565b60405180806020018773ffffffffffffffffffffffffffffffffffffffff1673ffffffffffffffffffffffffffffffffffffffff16815260200180602001806020018060200186815260200185810385528b818151815260200191508051906020019080838360005b83811015610f2d578082015181840152602081019050610f12565b50505050905090810190601f168015610f5a5780820380516001836020036101000a031916815260200191505b50858103845289818151815260200191508051906020019080838360005b83811015610f93578082015181840152602081019050610f78565b50505050905090810190601f168015610fc05780820380516001836020036101000a031916815260200191505b50858103835288818151815260200191508051906020019080838360005b83811015610ff9578082015181840152602081019050610fde565b50505050905090810190601f1680156110265780820380516001836020036101000a031916815260200191505b50858103825287818151815260200191508051906020019080838360005b8381101561105f578082015181840152602081019050611044565b50505050905090810190601f16801561108c5780820380516001836020036101000a031916815260200191505b509a505050505050505050505060405180910390f35b3480156110ae57600080fd5b506110b7613861565b604051808275ffffffffffffffffffffffffffffffffffffffffffff191675ffffffffffffffffffffffffffffffffffffffffffff1916815260200191505060405180910390f35b6111bf600480360381019080803573ffffffffffffffffffffffffffffffffffffffff169060200190929190803590602001908201803590602001908080601f0160208091040260200160405190810160405280939291908181526020018383808284378201915050505050509192919290803590602001908201803590602001908080601f0160208091040260200160405190810160405280939291908181526020018383808284378201915050505050509192919290505050613885565b005b60025481565b60006111d161409e565b60027f0100000000000000000000000000000000000000000000000000000000000000027effffffffffffffffffffffffffffffffffffffffffffffffffffffffffffff1916600360003373ffffffffffffffffffffffffffffffffffffffff1673ffffffffffffffffffffffffffffffffffffffff16815260200190815260200160002060009054906101000a90047f0100000000000000000000000000000000000000000000000000000000000000027effffffffffffffffffffffffffffffffffffffffffffffffffffffffffffff1916148015611361575060007f010000000000000000000000000000000000000000000000000000000000000002600360008773ffffffffffffffffffffffffffffffffffffffff1673ffffffffffffffffffffffffffffffffffffffff16815260200190815260200160002060009054906101000a90047f0100000000000000000000000000000000000000000000000000000000000000027effffffffffffffffffffffffffffffffffffffffffffffffffffffffffffff1916145b151561136c57600080fd5b60037f01000000000000000000000000000000000000000000000000000000000000000291508381600001819052508281602001819052506000816080018181525050338160a0019073ffffffffffffffffffffffffffffffffffffffff16908173ffffffffffffffffffffffffffffffffffffffff1681525050428160c001818152505080600560008773ffffffffffffffffffffffffffffffffffffffff1673ffffffffffffffffffffffffffffffffffffffff168152602001908152602001600020600082015181600001908051906020019061144d9291906140fa565b50602082015181600101908051906020019061146a9291906140fa565b5060408201518160020190805190602001906114879291906140fa565b50606082015181600301556080820151816005015560a08201518160060160006101000a81548173ffffffffffffffffffffffffffffffffffffffff021916908373ffffffffffffffffffffffffffffffffffffffff16021790555060c0820151816007015560e0820151816008015590505081600360008773ffffffffffffffffffffffffffffffffffffffff1673ffffffffffffffffffffffffffffffffffffffff16815260200190815260200160002060006101000a81548160ff02191690837f01000000000000000000000000000000000000000000000000000000000000009004021790555060016002600082825401925050819055505050505050565b60036020528060005260406000206000915054906101000a90047f01000000000000000000000000000000000000000000000000000000000000000281565b60015481565b60037f01000000000000000000000000000000000000000000000000000000000000000281565b600061160061417a565b60017f0100000000000000000000000000000000000000000000000000000000000000027effffffffffffffffffffffffffffffffffffffffffffffffffffffffffffff1916600360003373ffffffffffffffffffffffffffffffffffffffff1673ffffffffffffffffffffffffffffffffffffffff16815260200190815260200160002060009054906101000a90047f0100000000000000000000000000000000000000000000000000000000000000027effffffffffffffffffffffffffffffffffffffffffffffffffffffffffffff1916148015611790575060007f010000000000000000000000000000000000000000000000000000000000000002600360008673ffffffffffffffffffffffffffffffffffffffff1673ffffffffffffffffffffffffffffffffffffffff16815260200190815260200160002060009054906101000a90047f0100000000000000000000000000000000000000000000000000000000000000027effffffffffffffffffffffffffffffffffffffffffffffffffffffffffffff1916145b151561179b57600080fd5b60027f01000000000000000000000000000000000000000000000000000000000000000291508281600001819052506000816080018181525050338160a0019073ffffffffffffffffffffffffffffffffffffffff16908173ffffffffffffffffffffffffffffffffffffffff1681525050428160c001818152505080600460008673ffffffffffffffffffffffffffffffffffffffff1673ffffffffffffffffffffffffffffffffffffffff16815260200190815260200160002060008201518160000190805190602001906118739291906140fa565b5060208201518160010155604082015181600201908051906020019061189a9291906140fa565b5060608201518160030190805190602001906118b79291906140fa565b506080820151816004015560a08201518160050160006101000a81548173ffffffffffffffffffffffffffffffffffffffff021916908373ffffffffffffffffffffffffffffffffffffffff16021790555060c0820151816006015560e0820151816007015590505081600360008673ffffffffffffffffffffffffffffffffffffffff1673ffffffffffffffffffffffffffffffffffffffff16815260200190815260200160002060006101000a81548160ff02191690837f010000000000000000000000000000000000000000000000000000000000000090040217905550600160026000828254019250508190555050505050565b600060608060608060606000806119c46141d6565b6119cc61409e565b60037f0100000000000000000000000000000000000000000000000000000000000000027effffffffffffffffffffffffffffffffffffffffffffffffffffffffffffff1916600360008e73ffffffffffffffffffffffffffffffffffffffff1673ffffffffffffffffffffffffffffffffffffffff16815260200190815260200160002060009054906101000a90047f0100000000000000000000000000000000000000000000000000000000000000027effffffffffffffffffffffffffffffffffffffffffffffffffffffffffffff1916141515611aac57600080fd5b600560008d73ffffffffffffffffffffffffffffffffffffffff1673ffffffffffffffffffffffffffffffffffffffff16815260200190815260200160002060040160008c815260200190815260200160002060c0604051908101604052908160008201548152602001600182018054600181600116156101000203166002900480601f016020809104026020016040519081016040528092919081815260200182805460018160011615610100020316600290048015611bae5780601f10611b8357610100808354040283529160200191611bae565b820191906000526020600020905b815481529060010190602001808311611b9157829003601f168201915b50505050508152602001600282018054600181600116156101000203166002900480601f016020809104026020016040519081016040528092919081815260200182805460018160011615610100020316600290048015611c505780601f10611c2557610100808354040283529160200191611c50565b820191906000526020600020905b815481529060010190602001808311611c3357829003601f168201915b50505050508152602001600382018054600181600116156101000203166002900480601f016020809104026020016040519081016040528092919081815260200182805460018160011615610100020316600290048015611cf25780601f10611cc757610100808354040283529160200191611cf2565b820191906000526020600020905b815481529060010190602001808311611cd557829003601f168201915b505050505081526020016004820160009054906101000a900473ffffffffffffffffffffffffffffffffffffffff1673ffffffffffffffffffffffffffffffffffffffff1673ffffffffffffffffffffffffffffffffffffffff1681526020016005820154815250509150600560008d73ffffffffffffffffffffffffffffffffffffffff1673ffffffffffffffffffffffffffffffffffffffff1681526020019081526020016000206101006040519081016040529081600082018054600181600116156101000203166002900480601f016020809104026020016040519081016040528092919081815260200182805460018160011615610100020316600290048015611e425780601f10611e1757610100808354040283529160200191611e42565b820191906000526020600020905b815481529060010190602001808311611e2557829003601f168201915b50505050508152602001600182018054600181600116156101000203166002900480601f016020809104026020016040519081016040528092919081815260200182805460018160011615610100020316600290048015611ee45780601f10611eb957610100808354040283529160200191611ee4565b820191906000526020600020905b815481529060010190602001808311611ec757829003601f168201915b50505050508152602001600282018054600181600116156101000203166002900480601f016020809104026020016040519081016040528092919081815260200182805460018160011615610100020316600290048015611f865780601f10611f5b57610100808354040283529160200191611f86565b820191906000526020600020905b815481529060010190602001808311611f6957829003601f168201915b5050505050815260200160038201548152602001600582015481526020016006820160009054906101000a900473ffffffffffffffffffffffffffffffffffffffff1673ffffffffffffffffffffffffffffffffffffffff1673ffffffffffffffffffffffffffffffffffffffff16815260200160078201548152602001600882015481525050905081600001518260200151836060015183600001518460200151866040015187608001518860a001518696508595508494508393508292509950995099509950995099509950995050509295985092959890939650565b6004602052806000526040600020600091509050806000018054600181600116156101000203166002900480601f0160208091040260200160405190810160405280929190818152602001828054600181600116156101000203166002900480156121115780601f106120e657610100808354040283529160200191612111565b820191906000526020600020905b8154815290600101906020018083116120f457829003601f168201915b505050505090806001015490806002018054600181600116156101000203166002900480601f0160208091040260200160405190810160405280929190818152602001828054600181600116156101000203166002900480156121b55780601f1061218a576101008083540402835291602001916121b5565b820191906000526020600020905b81548152906001019060200180831161219857829003601f168201915b505050505090806003018054600181600116156101000203166002900480601f0160208091040260200160405190810160405280929190818152602001828054600181600116156101000203166002900480156122535780601f1061222857610100808354040283529160200191612253565b820191906000526020600020905b81548152906001019060200180831161223657829003601f168201915b5050505050908060040154908060050160009054906101000a900473ffffffffffffffffffffffffffffffffffffffff16908060060154908060070154905088565b60017f01000000000000000000000000000000000000000000000000000000000000000281565b6122c461409e565b60037f0100000000000000000000000000000000000000000000000000000000000000027effffffffffffffffffffffffffffffffffffffffffffffffffffffffffffff1916600360003373ffffffffffffffffffffffffffffffffffffffff1673ffffffffffffffffffffffffffffffffffffffff16815260200190815260200160002060009054906101000a90047f0100000000000000000000000000000000000000000000000000000000000000027effffffffffffffffffffffffffffffffffffffffffffffffffffffffffffff19161415156123a457600080fd5b600560003373ffffffffffffffffffffffffffffffffffffffff1673ffffffffffffffffffffffffffffffffffffffff1681526020019081526020016000206101006040519081016040529081600082018054600181600116156101000203166002900480601f0160208091040260200160405190810160405280929190818152602001828054600181600116156101000203166002900480156124895780601f1061245e57610100808354040283529160200191612489565b820191906000526020600020905b81548152906001019060200180831161246c57829003601f168201915b50505050508152602001600182018054600181600116156101000203166002900480601f01602080910402602001604051908101604052809291908181526020018280546001816001161561010002031660029004801561252b5780601f106125005761010080835404028352916020019161252b565b820191906000526020600020905b81548152906001019060200180831161250e57829003601f168201915b50505050508152602001600282018054600181600116156101000203166002900480601f0160208091040260200160405190810160405280929190818152602001828054600181600116156101000203166002900480156125cd5780601f106125a2576101008083540402835291602001916125cd565b820191906000526020600020905b8154815290600101906020018083116125b057829003601f168201915b5050505050815260200160038201548152602001600582015481526020016006820160009054906101000a900473ffffffffffffffffffffffffffffffffffffffff1673ffffffffffffffffffffffffffffffffffffffff1673ffffffffffffffffffffffffffffffffffffffff16815260200160078201548152602001600882015481525050905082816040018190525081816060018181525050428160e001818152505080600560003373ffffffffffffffffffffffffffffffffffffffff1673ffffffffffffffffffffffffffffffffffffffff16815260200190815260200160002060008201518160000190805190602001906126cf9291906140fa565b5060208201518160010190805190602001906126ec9291906140fa565b5060408201518160020190805190602001906127099291906140fa565b50606082015181600301556080820151816005015560a08201518160060160006101000a81548173ffffffffffffffffffffffffffffffffffffffff021916908373ffffffffffffffffffffffffffffffffffffffff16021790555060c0820151816007015560e08201518160080155905050505050565b60027f01000000000000000000000000000000000000000000000000000000000000000281565b6005602052806000526040600020600091509050806000018054600181600116156101000203166002900480601f0160208091040260200160405190810160405280929190818152602001828054600181600116156101000203166002900480156128545780601f1061282957610100808354040283529160200191612854565b820191906000526020600020905b81548152906001019060200180831161283757829003601f168201915b505050505090806001018054600181600116156101000203166002900480601f0160208091040260200160405190810160405280929190818152602001828054600181600116156101000203166002900480156128f25780601f106128c7576101008083540402835291602001916128f2565b820191906000526020600020905b8154815290600101906020018083116128d557829003601f168201915b505050505090806002018054600181600116156101000203166002900480601f0160208091040260200160405190810160405280929190818152602001828054600181600116156101000203166002900480156129905780601f1061296557610100808354040283529160200191612990565b820191906000526020600020905b81548152906001019060200180831161297357829003601f168201915b5050505050908060030154908060050154908060060160009054906101000a900473ffffffffffffffffffffffffffffffffffffffff16908060070154908060080154905088565b6006818154811015156129e757fe5b9060005260206000209060060201600091509050806000015490806001018054600181600116156101000203166002900480601f016020809104026020016040519081016040528092919081815260200182805460018160011615610100020316600290048015612a995780601f10612a6e57610100808354040283529160200191612a99565b820191906000526020600020905b815481529060010190602001808311612a7c57829003601f168201915b505050505090806002018054600181600116156101000203166002900480601f016020809104026020016040519081016040528092919081815260200182805460018160011615610100020316600290048015612b375780601f10612b0c57610100808354040283529160200191612b37565b820191906000526020600020905b815481529060010190602001808311612b1a57829003601f168201915b505050505090806003018054600181600116156101000203166002900480601f016020809104026020016040519081016040528092919081815260200182805460018160011615610100020316600290048015612bd55780601f10612baa57610100808354040283529160200191612bd5565b820191906000526020600020905b815481529060010190602001808311612bb857829003601f168201915b5050505050908060040160009054906101000a900473ffffffffffffffffffffffffffffffffffffffff16908060050154905086565b612c1361417a565b60027f0100000000000000000000000000000000000000000000000000000000000000027effffffffffffffffffffffffffffffffffffffffffffffffffffffffffffff1916600360003373ffffffffffffffffffffffffffffffffffffffff1673ffffffffffffffffffffffffffffffffffffffff16815260200190815260200160002060009054906101000a90047f0100000000000000000000000000000000000000000000000000000000000000027effffffffffffffffffffffffffffffffffffffffffffffffffffffffffffff1916141515612cf357600080fd5b600460003373ffffffffffffffffffffffffffffffffffffffff1673ffffffffffffffffffffffffffffffffffffffff1681526020019081526020016000206101006040519081016040529081600082018054600181600116156101000203166002900480601f016020809104026020016040519081016040528092919081815260200182805460018160011615610100020316600290048015612dd85780601f10612dad57610100808354040283529160200191612dd8565b820191906000526020600020905b815481529060010190602001808311612dbb57829003601f168201915b5050505050815260200160018201548152602001600282018054600181600116156101000203166002900480601f016020809104026020016040519081016040528092919081815260200182805460018160011615610100020316600290048015612e845780601f10612e5957610100808354040283529160200191612e84565b820191906000526020600020905b815481529060010190602001808311612e6757829003601f168201915b50505050508152602001600382018054600181600116156101000203166002900480601f016020809104026020016040519081016040528092919081815260200182805460018160011615610100020316600290048015612f265780601f10612efb57610100808354040283529160200191612f26565b820191906000526020600020905b815481529060010190602001808311612f0957829003601f168201915b50505050508152602001600482015481526020016005820160009054906101000a900473ffffffffffffffffffffffffffffffffffffffff1673ffffffffffffffffffffffffffffffffffffffff1673ffffffffffffffffffffffffffffffffffffffff16815260200160068201548152602001600782015481525050905083816020018181525050828160400181905250818160600181905250428160e001818152505080600460003373ffffffffffffffffffffffffffffffffffffffff1673ffffffffffffffffffffffffffffffffffffffff16815260200190815260200160002060008201518160000190805190602001906130279291906140fa565b5060208201518160010155604082015181600201908051906020019061304e9291906140fa565b50606082015181600301908051906020019061306b9291906140fa565b506080820151816004015560a08201518160050160006101000a81548173ffffffffffffffffffffffffffffffffffffffff021916908373ffffffffffffffffffffffffffffffffffffffff16021790555060c0820151816006015560e0820151816007015590505050505050565b6000809054906101000a900473ffffffffffffffffffffffffffffffffffffffff1681565b6060600060608060606000806131136141d6565b61311b61409e565b600092505b600680549050831115156138535760068381548110151561313d57fe5b906000526020600020906006020160c0604051908101604052908160008201548152602001600182018054600181600116156101000203166002900480601f0160208091040260200160405190810160405280929190818152602001828054600181600116156101000203166002900480156131fa5780601f106131cf576101008083540402835291602001916131fa565b820191906000526020600020905b8154815290600101906020018083116131dd57829003601f168201915b50505050508152602001600282018054600181600116156101000203166002900480601f01602080910402602001604051908101604052809291908181526020018280546001816001161561010002031660029004801561329c5780601f106132715761010080835404028352916020019161329c565b820191906000526020600020905b81548152906001019060200180831161327f57829003601f168201915b50505050508152602001600382018054600181600116156101000203166002900480601f01602080910402602001604051908101604052809291908181526020018280546001816001161561010002031660029004801561333e5780601f106133135761010080835404028352916020019161333e565b820191906000526020600020905b81548152906001019060200180831161332157829003601f168201915b505050505081526020016004820160009054906101000a900473ffffffffffffffffffffffffffffffffffffffff1673ffffffffffffffffffffffffffffffffffffffff1673ffffffffffffffffffffffffffffffffffffffff1681526020016005820154815250509150896040516020018082805190602001908083835b6020831015156133e257805182526020820191506020810190506020830392506133bd565b6001836020036101000a0380198251168184511680821785525050505050509050019150506040516020818303038152906040526040518082805190602001908083835b60208310151561344b5780518252602082019150602081019050602083039250613426565b6001836020036101000a03801982511681845116808217855250505050505090500191505060405180910390206000191682606001516040516020018082805190602001908083835b6020831015156134b95780518252602082019150602081019050602083039250613494565b6001836020036101000a0380198251168184511680821785525050505050509050019150506040516020818303038152906040526040518082805190602001908083835b60208310151561352257805182526020820191506020810190506020830392506134fd565b6001836020036101000a038019825116818451168082178552505050505050905001915050604051809103902060001916141561384657600560008c73ffffffffffffffffffffffffffffffffffffffff1673ffffffffffffffffffffffffffffffffffffffff1681526020019081526020016000206101006040519081016040529081600082018054600181600116156101000203166002900480601f01602080910402602001604051908101604052809291908181526020018280546001816001161561010002031660029004801561363e5780601f106136135761010080835404028352916020019161363e565b820191906000526020600020905b81548152906001019060200180831161362157829003601f168201915b50505050508152602001600182018054600181600116156101000203166002900480601f0160208091040260200160405190810160405280929190818152602001828054600181600116156101000203166002900480156136e05780601f106136b5576101008083540402835291602001916136e0565b820191906000526020600020905b8154815290600101906020018083116136c357829003601f168201915b50505050508152602001600282018054600181600116156101000203166002900480601f0160208091040260200160405190810160405280929190818152602001828054600181600116156101000203166002900480156137825780601f1061375757610100808354040283529160200191613782565b820191906000526020600020905b81548152906001019060200180831161376557829003601f168201915b5050505050815260200160038201548152602001600582015481526020016006820160009054906101000a900473ffffffffffffffffffffffffffffffffffffffff1673ffffffffffffffffffffffffffffffffffffffff1673ffffffffffffffffffffffffffffffffffffffff168152602001600782015481526020016008820154815250509050816020015182608001518260000151836020015185604001518660a00151859550839350829250819150985098509850985098509850613854565b8280600101935050613120565b5b5050509295509295509295565b7f312e302e3000000000000000000000000000000000000000000000000000000081565b600061388f6141d6565b600060027f0100000000000000000000000000000000000000000000000000000000000000027effffffffffffffffffffffffffffffffffffffffffffffffffffffffffffff1916600360003373ffffffffffffffffffffffffffffffffffffffff1673ffffffffffffffffffffffffffffffffffffffff16815260200190815260200160002060009054906101000a90047f0100000000000000000000000000000000000000000000000000000000000000027effffffffffffffffffffffffffffffffffffffffffffffffffffffffffffff1916148015613a43575060037f0100000000000000000000000000000000000000000000000000000000000000027effffffffffffffffffffffffffffffffffffffffffffffffffffffffffffff1916600360008873ffffffffffffffffffffffffffffffffffffffff1673ffffffffffffffffffffffffffffffffffffffff16815260200190815260200160002060009054906101000a90047f0100000000000000000000000000000000000000000000000000000000000000027effffffffffffffffffffffffffffffffffffffffffffffffffffffffffffff1916145b1515613a4e57600080fd5b600560008773ffffffffffffffffffffffffffffffffffffffff1673ffffffffffffffffffffffffffffffffffffffff16815260200190815260200160002092506001836005015401826000018181525050600460003373ffffffffffffffffffffffffffffffffffffffff1673ffffffffffffffffffffffffffffffffffffffff1681526020019081526020016000206000018054600181600116156101000203166002900480601f016020809104026020016040519081016040528092919081815260200182805460018160011615610100020316600290048015613b765780601f10613b4b57610100808354040283529160200191613b76565b820191906000526020600020905b815481529060010190602001808311613b5957829003601f168201915b5050505050826020018190525084826040018190525083826060018190525033826080019073ffffffffffffffffffffffffffffffffffffffff16908173ffffffffffffffffffffffffffffffffffffffff1681525050428260a00181815250508183600401600085600501548152602001908152602001600020600082015181600001556020820151816001019080519060200190613c179291906140fa565b506040820151816002019080519060200190613c349291906140fa565b506060820151816003019080519060200190613c519291906140fa565b5060808201518160040160006101000a81548173ffffffffffffffffffffffffffffffffffffffff021916908373ffffffffffffffffffffffffffffffffffffffff16021790555060a082015181600501559050506001836005016000828254019250508190555060016006805490500182600001818152505060068290806001815401808255809150509060018203906000526020600020906006020160009091929091909150600082015181600001556020820151816001019080519060200190613d1f9291906140fa565b506040820151816002019080519060200190613d3c9291906140fa565b506060820151816003019080519060200190613d599291906140fa565b5060808201518160040160006101000a81548173ffffffffffffffffffffffffffffffffffffffff021916908373ffffffffffffffffffffffffffffffffffffffff16021790555060a08201518160050155505050600460003373ffffffffffffffffffffffffffffffffffffffff1673ffffffffffffffffffffffffffffffffffffffff16815260200190815260200160002090506001816004016000828254019250508190555082600560008873ffffffffffffffffffffffffffffffffffffffff1673ffffffffffffffffffffffffffffffffffffffff16815260200190815260200160002060008201816000019080546001816001161561010002031660029004613e69929190614223565b5060018201816001019080546001816001161561010002031660029004613e91929190614223565b5060028201816002019080546001816001161561010002031660029004613eb9929190614223565b5060038201548160030155600582015481600501556006820160009054906101000a900473ffffffffffffffffffffffffffffffffffffffff168160060160006101000a81548173ffffffffffffffffffffffffffffffffffffffff021916908373ffffffffffffffffffffffffffffffffffffffff160217905550600782015481600701556008820154816008015590505080600460003373ffffffffffffffffffffffffffffffffffffffff1673ffffffffffffffffffffffffffffffffffffffff16815260200190815260200160002060008201816000019080546001816001161561010002031660029004613fb3929190614223565b506001820154816001015560028201816002019080546001816001161561010002031660029004613fe5929190614223565b506003820181600301908054600181600116156101000203166002900461400d929190614223565b50600482015481600401556005820160009054906101000a900473ffffffffffffffffffffffffffffffffffffffff168160050160006101000a81548173ffffffffffffffffffffffffffffffffffffffff021916908373ffffffffffffffffffffffffffffffffffffffff1602179055506006820154816006015560078201548160070155905050505050505050565b610100604051908101604052806060815260200160608152602001606081526020016000815260200160008152602001600073ffffffffffffffffffffffffffffffffffffffff16815260200160008152602001600081525090565b828054600181600116156101000203166002900490600052602060002090601f016020900481019282601f1061413b57805160ff1916838001178555614169565b82800160010185558215614169579182015b8281111561416857825182559160200191906001019061414d565b5b50905061417691906142aa565b5090565b610100604051908101604052806060815260200160008152602001606081526020016060815260200160008152602001600073ffffffffffffffffffffffffffffffffffffffff16815260200160008152602001600081525090565b60c06040519081016040528060008152602001606081526020016060815260200160608152602001600073ffffffffffffffffffffffffffffffffffffffff168152602001600081525090565b828054600181600116156101000203166002900490600052602060002090601f016020900481019282601f1061425c5780548555614299565b8280016001018555821561429957600052602060002091601f016020900482015b8281111561429857825482559160010191906001019061427d565b5b5090506142a691906142aa565b5090565b6142cc91905b808211156142c85760008160009055506001016142b0565b5090565b905600a165627a7a723058207b924c0f31a9dbb11faba24cded95df80f07a8d902177e27f8d6b428569410a10029",
  "source": "/*\r\n    @author: Jaime Jesus Alvarado Perez\r\n    @version: 1.0.0\r\n    @date: 10/08/2019\r\n*/\r\npragma solidity 0.4.24;\r\n\r\ncontract DigiCert{\r\n    \r\n   //Estructuras de los usuarios\r\n    struct Organization {\r\n        string name_organization;//nombre de la organizacion\r\n        uint256 phone;//telefono\r\n        string email;//correo de la institucion\r\n        string web_page;//pagina web de la organizacion\r\n        uint256 qt_certificates_issued;//cantidad de certificados emitidos\r\n        address added_by;//aadido por...\r\n        uint256 added_timestamp;//fecha que fue aadido\r\n        uint256 updated_timestamp;//fecha en la que se actualizo la informacion\r\n    }\r\n\r\n    struct Student {\r\n        string name_student;//nombre del Estudiante\r\n        string lastname_student;//apellido del Estudiante\r\n        string email;//correo\r\n        uint256 phone;//telefono\r\n        mapping (uint256 => Certificate) certificates;//mapping de los certificados que posee\r\n        uint256 qt_certificates;//cantidad de certificados que posee el estudiante\r\n        address added_by;//aadido por...\r\n        uint256 added_timestamp;//fecha en que se aadio al estudiante\r\n        uint256 updated_timestamp;//ultima fecha de actualizacion\r\n    }\r\n    \r\n    struct Certificate {\r\n        uint256 id;//id del certificado\r\n        string organization; //nombre de la organizacion\r\n        string title;//descripcion del certificado\r\n        //string certificate_owner;//propietario del significado\r\n        string ipfs_hash;//hash del protocolo ipfs donde se alojo\r\n        address added_by;//aadido por ...\r\n        uint256 added_timestamp;//fecha en la que se aadio el certificado\r\n    }\r\n  \r\n    // Constantes\r\n    bytes1 public constant T_ADMIN = 0x01;//administrador\r\n    bytes1 public constant T_ORGANIZATION = 0x02;//organizacion\r\n    bytes1 public constant T_STUDENT = 0x03;//estudiante\r\n    bytes10 public constant VERSION = \"1.0.0\";//version del contrato\r\n\r\n    address public _owner;//persona que desplego el contrato\r\n    uint256 public _created_timestamp;//fecha de creacion del contrato\r\n    uint256 public _qt_users = 0;//cantidad de usuarios que posee el contrato\r\n    \r\n    //mapeo de usuarios: 1-Admin, 2-Organizaciones, 3-Estudiantes\r\n    \r\n    mapping (address => bytes1) public _users;//mapping de usuarios\r\n    mapping (address => Organization) public _organizations;//mapping de organizaciones\r\n    mapping (address => Student) public _students;//mapping de estudiantes\r\n    \r\n    Certificate[] public certificates_hashes;\r\n    \r\n    //Constructor\r\n    \r\n    constructor() public payable\r\n    {\r\n        _owner = msg.sender;\r\n        _created_timestamp = block.timestamp;\r\n\r\n        _users[msg.sender] = T_ADMIN;\r\n        _qt_users++;\r\n    }\r\n    \r\n    /*\r\n    addOrganization:\r\n    Metodo para insertar una nueva organizacion.\r\n    El administrador solo puede aadir organizaciones\r\n    @parametros: address -> paddress  (Clave publica del usuario),\r\n                 string  -> _name_organization (nombre de la organizacion),\r\n                 string  -> _web_page (direccion de la pagina web de la organizacion)\r\n    */\r\n    function addOrganization(address paddress, string _name_organization) public payable\r\n    {\r\n      \r\n      require(_users[msg.sender]==T_ADMIN && _users[paddress]== 0x00);\r\n      \r\n      bytes1 user_type;\r\n      \r\n      user_type = T_ORGANIZATION;\r\n\r\n      Organization memory objOrganization;\r\n\r\n      objOrganization.name_organization=_name_organization;\r\n      objOrganization.qt_certificates_issued = 0;\r\n      objOrganization.added_by = msg.sender;\r\n      objOrganization.added_timestamp = block.timestamp;\r\n\r\n      _organizations[paddress] = objOrganization;\r\n      \r\n      _users[paddress] = user_type;\r\n      _qt_users += 1;\r\n    }\r\n    \r\n    /*\r\n    addStudent:\r\n    Metodo para insertar un nuevo Estudiante.\r\n    Solo la organizacion puede aadir Estudiantes\r\n    @parametros: address -> paddress  (Clave publica del Estudiante),\r\n                 string  -> _name_student (nombre del Estudiante),\r\n                 string  -> _web_page (direccion de la pagina web de la organizacion)\r\n    */\r\n    \r\n    function addStudent(address paddress, string _name_student, string _lastname_student)public payable\r\n    {\r\n      require(_users[msg.sender]==T_ORGANIZATION && _users[paddress]== 0x00);\r\n    \r\n      bytes1 user_type;\r\n        \r\n      user_type = T_STUDENT;\r\n\r\n      Student memory objStudent;\r\n\r\n      objStudent.name_student=_name_student;\r\n      objStudent.lastname_student=_lastname_student;\r\n      objStudent.qt_certificates = 0;\r\n      objStudent.added_by = msg.sender;\r\n      objStudent.added_timestamp = block.timestamp;\r\n\r\n      _students[paddress] = objStudent;\r\n      \r\n      _users[paddress] = user_type;\r\n      _qt_users += 1;\r\n    }\r\n    \r\n    /*\r\n    Aadir Certificado: addCertificate:\r\n    Metodo para insertar un nuevo certificado de un Estudiante.\r\n    Solo las organizaciones pueden aadir certificados.\r\n\r\n    @parametros:    address ->  pstudent(clave publica del Estudiante),    \r\n                    string  ->  _description(descripcion del certificado),\r\n                    string  ->  ipfs_hash (Hash IPFS del certificado .pdf)\r\n    */\r\n    \r\n    \r\n  function addCertificate(address pstudent, string _title, string ipfs_hash) public payable\r\n  {\r\n    require(_users[msg.sender] == T_ORGANIZATION && _users[pstudent] == T_STUDENT);\r\n\r\n    Student storage objStudent = _students[pstudent];\r\n    Certificate memory objCertificate;\r\n\r\n    objCertificate.id = objStudent.qt_certificates + 1;\r\n    objCertificate.organization =_organizations[msg.sender].name_organization;\r\n    objCertificate.title = _title;\r\n    objCertificate.ipfs_hash = ipfs_hash;\r\n    objCertificate.added_by = msg.sender;\r\n    objCertificate.added_timestamp = block.timestamp;\r\n\r\n    objStudent.certificates[objStudent.qt_certificates] = objCertificate;\r\n    objStudent.qt_certificates += 1;\r\n    \r\n    objCertificate.id=certificates_hashes.length+1;\r\n    certificates_hashes.push(objCertificate);\r\n\r\n    Organization storage objOrganization = _organizations[msg.sender];\r\n    objOrganization.qt_certificates_issued += 1;\r\n\r\n    _students[pstudent] = objStudent;\r\n    _organizations[msg.sender] = objOrganization;\r\n  }\r\n  \r\n  /* setStudent / setOrganization:\r\n    Method to update the information of a organization or a student.\r\n    Only the organization or the student can update their details.\r\n\r\n    @param string pipfs_hash IPFS hash with the details of the student*/\r\n  \r\n  function setStudent(string _email, uint256 _phone) public payable\r\n  {\r\n    require(_users[msg.sender] == T_STUDENT);\r\n\r\n    Student memory objStudent = _students[msg.sender];\r\n\r\n    objStudent.email = _email;\r\n    objStudent.phone = _phone;\r\n    objStudent.updated_timestamp = block.timestamp;\r\n\r\n    _students[msg.sender] = objStudent;\r\n  }\r\n\r\n  function setOrganization(uint256 _phone, string _email, string _web_page) public payable\r\n  {\r\n    require(_users[msg.sender] == T_ORGANIZATION);\r\n\r\n    Organization memory objOrganization = _organizations[msg.sender];\r\n\r\n    objOrganization.phone = _phone;\r\n    objOrganization.email = _email;\r\n    objOrganization.web_page = _web_page;\r\n    objOrganization.updated_timestamp = block.timestamp;\r\n\r\n    _organizations[msg.sender] = objOrganization;\r\n  }\r\n  \r\n  /*\r\n    getCertificateEstudent:\r\n    Metodo para conseguir un especifico certificado de un Estudiante.\r\n\r\n    @parametros: address ->pstudent (clave publica del Estudiante)\r\n\r\n    @return:    uint256 ->  Numero de certificado.\r\n                string  ->  Nombre de la organizacion.\r\n                string  ->  IPFS Hash.\r\n                string  ->  Nombre del propietario\r\n                string  ->  Apellido del propietario.\r\n                string  ->  titulo del Certificado.\r\n                address ->  Direccion de la organizacion.\r\n                uint256 ->  Fecha en la que el Certificado fue Emitido.\r\n    */  \r\n  function getCertificateEstudent(address pstudent, uint256 pcertificate) public view returns (uint256, string, string, string, string, string, address, uint256)\r\n  {\r\n    require(_users[pstudent] == T_STUDENT);\r\n    Certificate memory objCertificate = _students[pstudent].certificates[pcertificate];\r\n    Student memory objStudent = _students[pstudent];\r\n    return (objCertificate.id, objCertificate.organization, objCertificate.ipfs_hash, objStudent.name_student, objStudent.lastname_student, objCertificate.title, objCertificate.added_by, objCertificate.added_timestamp);\r\n  }\r\n  \r\n  /*\r\n    getCertificateThird\r\n    Metodo para corroborar la autenticidad de un certificado por terceros\r\n    @parametros:    string ->  pcertificate (clave publica del certificado)\r\n    \r\n    @return:        string  ->  nombre de la institucion que emitio el certificado\r\n                    address ->  direccion publica de la institucion\r\n                    string  ->  nombre del Estudiante al que pertenece el certificado\r\n                    string  ->  apellido del Estudiante\r\n                    string  ->  titulo del certificado\r\n                    uint256 ->  fecha en la que se emitio el certificado\r\n  */\r\n  function getCertificateThird(address pstudent, string _ipfs_hash) public view returns (string, address, string, string, string, uint256)\r\n  {\r\n      for(uint i=0; i<=certificates_hashes.length; i++){\r\n          Certificate memory objCertificate = certificates_hashes[i];\r\n          if(keccak256(abi.encodePacked(objCertificate.ipfs_hash)) == keccak256(abi.encodePacked(_ipfs_hash)))\r\n          {\r\n              Student memory objStudent = _students[pstudent];\r\n              return (objCertificate.organization, objCertificate.added_by, objStudent.name_student, objStudent.lastname_student, objCertificate.title, objCertificate.added_timestamp);\r\n          }\r\n      }\r\n  }\r\n}",
  "sourcePath": "C:\\Users\\XYLON\\Desktop\\Prototipo3\\digicert\\contracts\\DigiCert.sol",
  "compiler": {
    "name": "solc",
    "version": "0.4.24+commit.e67f0147.Emscripten.clang"
  },
  "schemaVersion": "2.0.1",
  "updatedAt": "2019-12-07T08:11:33.227Z"
}