{
  "contractName": "DigiCert",
  "abi": [
    {
      "constant": true,
      "inputs": [],
      "name": "_qt_users",
      "outputs": [
        {
          "name": "",
          "type": "uint256"
        }
      ],
      "payable": false,
      "stateMutability": "view",
      "type": "function"
    },
    {
      "constant": true,
      "inputs": [
        {
          "name": "",
          "type": "address"
        }
      ],
      "name": "_users",
      "outputs": [
        {
          "name": "",
          "type": "bytes1"
        }
      ],
      "payable": false,
      "stateMutability": "view",
      "type": "function"
    },
    {
      "constant": true,
      "inputs": [],
      "name": "_created_timestamp",
      "outputs": [
        {
          "name": "",
          "type": "uint256"
        }
      ],
      "payable": false,
      "stateMutability": "view",
      "type": "function"
    },
    {
      "constant": true,
      "inputs": [],
      "name": "T_STUDENT",
      "outputs": [
        {
          "name": "",
          "type": "bytes1"
        }
      ],
      "payable": false,
      "stateMutability": "view",
      "type": "function"
    },
    {
      "constant": true,
      "inputs": [
        {
          "name": "",
          "type": "address"
        }
      ],
      "name": "_organizations",
      "outputs": [
        {
          "name": "organization_address",
          "type": "address"
        },
        {
          "name": "name_organization",
          "type": "string"
        },
        {
          "name": "phone",
          "type": "uint256"
        },
        {
          "name": "email",
          "type": "string"
        },
        {
          "name": "web_page",
          "type": "string"
        },
        {
          "name": "qt_certificates_issued",
          "type": "uint256"
        },
        {
          "name": "added_by",
          "type": "address"
        },
        {
          "name": "added_timestamp",
          "type": "uint256"
        },
        {
          "name": "updated_timestamp",
          "type": "uint256"
        }
      ],
      "payable": false,
      "stateMutability": "view",
      "type": "function"
    },
    {
      "constant": true,
      "inputs": [],
      "name": "T_ADMIN",
      "outputs": [
        {
          "name": "",
          "type": "bytes1"
        }
      ],
      "payable": false,
      "stateMutability": "view",
      "type": "function"
    },
    {
      "constant": true,
      "inputs": [],
      "name": "T_ORGANIZATION",
      "outputs": [
        {
          "name": "",
          "type": "bytes1"
        }
      ],
      "payable": false,
      "stateMutability": "view",
      "type": "function"
    },
    {
      "constant": true,
      "inputs": [
        {
          "name": "",
          "type": "address"
        }
      ],
      "name": "_students",
      "outputs": [
        {
          "name": "student_address",
          "type": "address"
        },
        {
          "name": "name_student",
          "type": "string"
        },
        {
          "name": "lastname_student",
          "type": "string"
        },
        {
          "name": "email",
          "type": "string"
        },
        {
          "name": "phone",
          "type": "uint256"
        },
        {
          "name": "qt_certificates",
          "type": "uint256"
        },
        {
          "name": "added_by",
          "type": "address"
        },
        {
          "name": "added_timestamp",
          "type": "uint256"
        },
        {
          "name": "updated_timestamp",
          "type": "uint256"
        }
      ],
      "payable": false,
      "stateMutability": "view",
      "type": "function"
    },
    {
      "constant": true,
      "inputs": [
        {
          "name": "",
          "type": "uint256"
        }
      ],
      "name": "certificates_hashes",
      "outputs": [
        {
          "name": "id",
          "type": "uint256"
        },
        {
          "name": "organization",
          "type": "string"
        },
        {
          "name": "title",
          "type": "string"
        },
        {
          "name": "certificate_owner",
          "type": "address"
        },
        {
          "name": "ipfs_hash",
          "type": "string"
        },
        {
          "name": "added_by",
          "type": "address"
        },
        {
          "name": "added_timestamp",
          "type": "uint256"
        }
      ],
      "payable": false,
      "stateMutability": "view",
      "type": "function"
    },
    {
      "constant": true,
      "inputs": [
        {
          "name": "",
          "type": "uint256"
        }
      ],
      "name": "organizations_added",
      "outputs": [
        {
          "name": "organization_address",
          "type": "address"
        },
        {
          "name": "name_organization",
          "type": "string"
        },
        {
          "name": "phone",
          "type": "uint256"
        },
        {
          "name": "email",
          "type": "string"
        },
        {
          "name": "web_page",
          "type": "string"
        },
        {
          "name": "qt_certificates_issued",
          "type": "uint256"
        },
        {
          "name": "added_by",
          "type": "address"
        },
        {
          "name": "added_timestamp",
          "type": "uint256"
        },
        {
          "name": "updated_timestamp",
          "type": "uint256"
        }
      ],
      "payable": false,
      "stateMutability": "view",
      "type": "function"
    },
    {
      "constant": true,
      "inputs": [],
      "name": "_owner",
      "outputs": [
        {
          "name": "",
          "type": "address"
        }
      ],
      "payable": false,
      "stateMutability": "view",
      "type": "function"
    },
    {
      "constant": true,
      "inputs": [],
      "name": "VERSION",
      "outputs": [
        {
          "name": "",
          "type": "bytes10"
        }
      ],
      "payable": false,
      "stateMutability": "view",
      "type": "function"
    },
    {
      "inputs": [],
      "payable": true,
      "stateMutability": "payable",
      "type": "constructor"
    },
    {
      "constant": false,
      "inputs": [
        {
          "name": "paddress",
          "type": "address"
        },
        {
          "name": "_name_organization",
          "type": "string"
        }
      ],
      "name": "addOrganization",
      "outputs": [],
      "payable": true,
      "stateMutability": "payable",
      "type": "function"
    },
    {
      "constant": false,
      "inputs": [
        {
          "name": "paddress",
          "type": "address"
        },
        {
          "name": "_name_student",
          "type": "string"
        },
        {
          "name": "_lastname_student",
          "type": "string"
        }
      ],
      "name": "addStudent",
      "outputs": [],
      "payable": true,
      "stateMutability": "payable",
      "type": "function"
    },
    {
      "constant": false,
      "inputs": [
        {
          "name": "pstudent",
          "type": "address"
        },
        {
          "name": "_title",
          "type": "string"
        },
        {
          "name": "ipfs_hash",
          "type": "string"
        }
      ],
      "name": "addCertificate",
      "outputs": [],
      "payable": true,
      "stateMutability": "payable",
      "type": "function"
    },
    {
      "constant": false,
      "inputs": [
        {
          "name": "_email",
          "type": "string"
        },
        {
          "name": "_phone",
          "type": "uint256"
        }
      ],
      "name": "setStudent",
      "outputs": [],
      "payable": true,
      "stateMutability": "payable",
      "type": "function"
    },
    {
      "constant": false,
      "inputs": [
        {
          "name": "_phone",
          "type": "uint256"
        },
        {
          "name": "_email",
          "type": "string"
        },
        {
          "name": "_web_page",
          "type": "string"
        }
      ],
      "name": "setOrganization",
      "outputs": [],
      "payable": true,
      "stateMutability": "payable",
      "type": "function"
    },
    {
      "constant": true,
      "inputs": [
        {
          "name": "pstudent",
          "type": "address"
        },
        {
          "name": "pcertificate",
          "type": "uint256"
        }
      ],
      "name": "getCertificateEstudent",
      "outputs": [
        {
          "name": "",
          "type": "uint256"
        },
        {
          "name": "",
          "type": "string"
        },
        {
          "name": "",
          "type": "string"
        },
        {
          "name": "",
          "type": "string"
        },
        {
          "name": "",
          "type": "string"
        },
        {
          "name": "",
          "type": "string"
        },
        {
          "name": "",
          "type": "address"
        },
        {
          "name": "",
          "type": "uint256"
        }
      ],
      "payable": false,
      "stateMutability": "view",
      "type": "function"
    },
    {
      "constant": true,
      "inputs": [
        {
          "name": "_ipfs_hash",
          "type": "string"
        }
      ],
      "name": "getCertificateThird",
      "outputs": [
        {
          "name": "",
          "type": "string"
        },
        {
          "name": "",
          "type": "address"
        },
        {
          "name": "",
          "type": "string"
        },
        {
          "name": "",
          "type": "string"
        },
        {
          "name": "",
          "type": "string"
        },
        {
          "name": "",
          "type": "uint256"
        }
      ],
      "payable": false,
      "stateMutability": "view",
      "type": "function"
    },
    {
      "constant": true,
      "inputs": [],
      "name": "totalOrganizations",
      "outputs": [
        {
          "name": "",
          "type": "uint256"
        }
      ],
      "payable": false,
      "stateMutability": "view",
      "type": "function"
    },
    {
      "constant": true,
      "inputs": [
        {
          "name": "uaddress",
          "type": "address"
        }
      ],
      "name": "userType",
      "outputs": [
        {
          "name": "",
          "type": "uint256"
        }
      ],
      "payable": false,
      "stateMutability": "view",
      "type": "function"
    }
  ],
  "bytecode": "0x60806040526000600255336000806101000a81548173ffffffffffffffffffffffffffffffffffffffff021916908373ffffffffffffffffffffffffffffffffffffffff1602179055504260018190555060017f010000000000000000000000000000000000000000000000000000000000000002600360003373ffffffffffffffffffffffffffffffffffffffff1673ffffffffffffffffffffffffffffffffffffffff16815260200190815260200160002060006101000a81548160ff02191690837f0100000000000000000000000000000000000000000000000000000000000000900402179055506002600081548092919060010191905055506152738061010c6000396000f30060806040526004361061011d576000357c0100000000000000000000000000000000000000000000000000000000900463ffffffff1680630f160ac21461012257806321a829c61461014d5780633cacd7d61461020f57806344fc2923146102aa578063487b6867146102d55780634cf5d552146105355780634eb841bc146105605780636867478a146105cf57806368bb6cae1461064b57806371fc2d2e14610902578063981e1aa314610b185780639b4d52dd14610b875780639c68ce2d14610bed5780639e16574014610c5c578063a8d1e25a14610e72578063af9aa8b114611064578063b006637a14611264578063b2bdfa7b14611310578063b83458b014611367578063ffa1ad74146113be578063ffecb92f1461141b575b600080fd5b34801561012e57600080fd5b506101376114dd565b6040518082815260200191505060405180910390f35b61020d600480360381019080803573ffffffffffffffffffffffffffffffffffffffff169060200190929190803590602001908201803590602001908080601f0160208091040260200160405190810160405280939291908181526020018383808284378201915050505050509192919290803590602001908201803590602001908080601f01602080910402602001604051908101604052809392919081815260200183838082843782019150505050505091929192905050506114e3565b005b34801561021b57600080fd5b50610250600480360381019080803573ffffffffffffffffffffffffffffffffffffffff169060200190929190505050611926565b60405180827effffffffffffffffffffffffffffffffffffffffffffffffffffffffffffff19167effffffffffffffffffffffffffffffffffffffffffffffffffffffffffffff1916815260200191505060405180910390f35b3480156102b657600080fd5b506102bf611965565b6040518082815260200191505060405180910390f35b3480156102e157600080fd5b5061033c600480360381019080803590602001908201803590602001908080601f016020809104026020016040519081016040528093929190818152602001838380828437820191505050505050919291929050505061196b565b60405180806020018773ffffffffffffffffffffffffffffffffffffffff1673ffffffffffffffffffffffffffffffffffffffff16815260200180602001806020018060200186815260200185810385528b818151815260200191508051906020019080838360005b838110156103c05780820151818401526020810190506103a5565b50505050905090810190601f1680156103ed5780820380516001836020036101000a031916815260200191505b50858103845289818151815260200191508051906020019080838360005b8381101561042657808201518184015260208101905061040b565b50505050905090810190601f1680156104535780820380516001836020036101000a031916815260200191505b50858103835288818151815260200191508051906020019080838360005b8381101561048c578082015181840152602081019050610471565b50505050905090810190601f1680156104b95780820380516001836020036101000a031916815260200191505b50858103825287818151815260200191508051906020019080838360005b838110156104f25780820151818401526020810190506104d7565b50505050905090810190601f16801561051f5780820380516001836020036101000a031916815260200191505b509a505050505050505050505060405180910390f35b34801561054157600080fd5b5061054a61217c565b6040518082815260200191505060405180910390f35b34801561056c57600080fd5b50610575612189565b60405180827effffffffffffffffffffffffffffffffffffffffffffffffffffffffffffff19167effffffffffffffffffffffffffffffffffffffffffffffffffffffffffffff1916815260200191505060405180910390f35b610649600480360381019080803573ffffffffffffffffffffffffffffffffffffffff169060200190929190803590602001908201803590602001908080601f01602080910402602001604051908101604052809392919081815260200183838082843782019150505050505091929192905050506121b0565b005b34801561065757600080fd5b50610696600480360381019080803573ffffffffffffffffffffffffffffffffffffffff16906020019092919080359060200190929190505050612728565b6040518089815260200180602001806020018060200180602001806020018873ffffffffffffffffffffffffffffffffffffffff1673ffffffffffffffffffffffffffffffffffffffff16815260200187815260200186810386528d818151815260200191508051906020019080838360005b83811015610724578082015181840152602081019050610709565b50505050905090810190601f1680156107515780820380516001836020036101000a031916815260200191505b5086810385528c818151815260200191508051906020019080838360005b8381101561078a57808201518184015260208101905061076f565b50505050905090810190601f1680156107b75780820380516001836020036101000a031916815260200191505b5086810384528b818151815260200191508051906020019080838360005b838110156107f05780820151818401526020810190506107d5565b50505050905090810190601f16801561081d5780820380516001836020036101000a031916815260200191505b5086810383528a818151815260200191508051906020019080838360005b8381101561085657808201518184015260208101905061083b565b50505050905090810190601f1680156108835780820380516001836020036101000a031916815260200191505b50868103825289818151815260200191508051906020019080838360005b838110156108bc5780820151818401526020810190506108a1565b50505050905090810190601f1680156108e95780820380516001836020036101000a031916815260200191505b509d505050505050505050505050505060405180910390f35b34801561090e57600080fd5b50610943600480360381019080803573ffffffffffffffffffffffffffffffffffffffff169060200190929190505050612e8a565b604051808a73ffffffffffffffffffffffffffffffffffffffff1673ffffffffffffffffffffffffffffffffffffffff1681526020018060200189815260200180602001806020018881526020018773ffffffffffffffffffffffffffffffffffffffff1673ffffffffffffffffffffffffffffffffffffffff16815260200186815260200185815260200184810384528c818151815260200191508051906020019080838360005b83811015610a075780820151818401526020810190506109ec565b50505050905090810190601f168015610a345780820380516001836020036101000a031916815260200191505b5084810383528a818151815260200191508051906020019080838360005b83811015610a6d578082015181840152602081019050610a52565b50505050905090810190601f168015610a9a5780820380516001836020036101000a031916815260200191505b50848103825289818151815260200191508051906020019080838360005b83811015610ad3578082015181840152602081019050610ab8565b50505050905090810190601f168015610b005780820380516001836020036101000a031916815260200191505b509c5050505050505050505050505060405180910390f35b348015610b2457600080fd5b50610b2d6130e0565b60405180827effffffffffffffffffffffffffffffffffffffffffffffffffffffffffffff19167effffffffffffffffffffffffffffffffffffffffffffffffffffffffffffff1916815260200191505060405180910390f35b610beb600480360381019080803590602001908201803590602001908080601f016020809104026020016040519081016040528093929190818152602001838380828437820191505050505050919291929080359060200190929190505050613107565b005b348015610bf957600080fd5b50610c0261366b565b60405180827effffffffffffffffffffffffffffffffffffffffffffffffffffffffffffff19167effffffffffffffffffffffffffffffffffffffffffffffffffffffffffffff1916815260200191505060405180910390f35b348015610c6857600080fd5b50610c9d600480360381019080803573ffffffffffffffffffffffffffffffffffffffff169060200190929190505050613692565b604051808a73ffffffffffffffffffffffffffffffffffffffff1673ffffffffffffffffffffffffffffffffffffffff1681526020018060200180602001806020018981526020018881526020018773ffffffffffffffffffffffffffffffffffffffff1673ffffffffffffffffffffffffffffffffffffffff16815260200186815260200185815260200184810384528c818151815260200191508051906020019080838360005b83811015610d61578082015181840152602081019050610d46565b50505050905090810190601f168015610d8e5780820380516001836020036101000a031916815260200191505b5084810383528b818151815260200191508051906020019080838360005b83811015610dc7578082015181840152602081019050610dac565b50505050905090810190601f168015610df45780820380516001836020036101000a031916815260200191505b5084810382528a818151815260200191508051906020019080838360005b83811015610e2d578082015181840152602081019050610e12565b50505050905090810190601f168015610e5a5780820380516001836020036101000a031916815260200191505b509c5050505050505050505050505060405180910390f35b348015610e7e57600080fd5b50610e9d600480360381019080803590602001909291905050506138e8565b6040518088815260200180602001806020018773ffffffffffffffffffffffffffffffffffffffff1673ffffffffffffffffffffffffffffffffffffffff168152602001806020018673ffffffffffffffffffffffffffffffffffffffff1673ffffffffffffffffffffffffffffffffffffffff16815260200185815260200184810384528a818151815260200191508051906020019080838360005b83811015610f55578082015181840152602081019050610f3a565b50505050905090810190601f168015610f825780820380516001836020036101000a031916815260200191505b50848103835289818151815260200191508051906020019080838360005b83811015610fbb578082015181840152602081019050610fa0565b50505050905090810190601f168015610fe85780820380516001836020036101000a031916815260200191505b50848103825287818151815260200191508051906020019080838360005b83811015611021578082015181840152602081019050611006565b50505050905090810190601f16801561104e5780820380516001836020036101000a031916815260200191505b509a505050505050505050505060405180910390f35b34801561107057600080fd5b5061108f60048036038101908080359060200190929190505050613b41565b604051808a73ffffffffffffffffffffffffffffffffffffffff1673ffffffffffffffffffffffffffffffffffffffff1681526020018060200189815260200180602001806020018881526020018773ffffffffffffffffffffffffffffffffffffffff1673ffffffffffffffffffffffffffffffffffffffff16815260200186815260200185815260200184810384528c818151815260200191508051906020019080838360005b83811015611153578082015181840152602081019050611138565b50505050905090810190601f1680156111805780820380516001836020036101000a031916815260200191505b5084810383528a818151815260200191508051906020019080838360005b838110156111b957808201518184015260208101905061119e565b50505050905090810190601f1680156111e65780820380516001836020036101000a031916815260200191505b50848103825289818151815260200191508051906020019080838360005b8381101561121f578082015181840152602081019050611204565b50505050905090810190601f16801561124c5780820380516001836020036101000a031916815260200191505b509c5050505050505050505050505060405180910390f35b61130e60048036038101908080359060200190929190803590602001908201803590602001908080601f0160208091040260200160405190810160405280939291908181526020018383808284378201915050505050509192919290803590602001908201803590602001908080601f0160208091040260200160405190810160405280939291908181526020018383808284378201915050505050509192919290505050613da6565b005b34801561131c57600080fd5b50611325614314565b604051808273ffffffffffffffffffffffffffffffffffffffff1673ffffffffffffffffffffffffffffffffffffffff16815260200191505060405180910390f35b34801561137357600080fd5b506113a8600480360381019080803573ffffffffffffffffffffffffffffffffffffffff169060200190929190505050614339565b6040518082815260200191505060405180910390f35b3480156113ca57600080fd5b506113d36145ee565b604051808275ffffffffffffffffffffffffffffffffffffffffffff191675ffffffffffffffffffffffffffffffffffffffffffff1916815260200191505060405180910390f35b6114db600480360381019080803573ffffffffffffffffffffffffffffffffffffffff169060200190929190803590602001908201803590602001908080601f0160208091040260200160405190810160405280939291908181526020018383808284378201915050505050509192919290803590602001908201803590602001908080601f0160208091040260200160405190810160405280939291908181526020018383808284378201915050505050509192919290505050614612565b005b60025481565b60006114ed614fbf565b60027f0100000000000000000000000000000000000000000000000000000000000000027effffffffffffffffffffffffffffffffffffffffffffffffffffffffffffff1916600360003373ffffffffffffffffffffffffffffffffffffffff1673ffffffffffffffffffffffffffffffffffffffff16815260200190815260200160002060009054906101000a90047f0100000000000000000000000000000000000000000000000000000000000000027effffffffffffffffffffffffffffffffffffffffffffffffffffffffffffff191614801561167d575060007f010000000000000000000000000000000000000000000000000000000000000002600360008773ffffffffffffffffffffffffffffffffffffffff1673ffffffffffffffffffffffffffffffffffffffff16815260200190815260200160002060009054906101000a90047f0100000000000000000000000000000000000000000000000000000000000000027effffffffffffffffffffffffffffffffffffffffffffffffffffffffffffff1916145b151561168857600080fd5b60037f010000000000000000000000000000000000000000000000000000000000000002915084816000019073ffffffffffffffffffffffffffffffffffffffff16908173ffffffffffffffffffffffffffffffffffffffff168152505083816020018190525082816040018190525060008160a0018181525050338160c0019073ffffffffffffffffffffffffffffffffffffffff16908173ffffffffffffffffffffffffffffffffffffffff1681525050428160e001818152505080600560008773ffffffffffffffffffffffffffffffffffffffff1673ffffffffffffffffffffffffffffffffffffffff16815260200190815260200160002060008201518160000160006101000a81548173ffffffffffffffffffffffffffffffffffffffff021916908373ffffffffffffffffffffffffffffffffffffffff16021790555060208201518160010190805190602001906117e8929190615038565b506040820151816002019080519060200190611805929190615038565b506060820151816003019080519060200190611822929190615038565b506080820151816004015560a0820151816006015560c08201518160070160006101000a81548173ffffffffffffffffffffffffffffffffffffffff021916908373ffffffffffffffffffffffffffffffffffffffff16021790555060e08201518160080155610100820151816009015590505081600360008773ffffffffffffffffffffffffffffffffffffffff1673ffffffffffffffffffffffffffffffffffffffff16815260200190815260200160002060006101000a81548160ff02191690837f01000000000000000000000000000000000000000000000000000000000000009004021790555060016002600082825401925050819055505050505050565b60036020528060005260406000206000915054906101000a90047f01000000000000000000000000000000000000000000000000000000000000000281565b60015481565b60606000606080606060008061197f6150b8565b611987614fbf565b600092505b6006805490508311151561216f576006838154811015156119a957fe5b906000526020600020906007020160e0604051908101604052908160008201548152602001600182018054600181600116156101000203166002900480601f016020809104026020016040519081016040528092919081815260200182805460018160011615610100020316600290048015611a665780601f10611a3b57610100808354040283529160200191611a66565b820191906000526020600020905b815481529060010190602001808311611a4957829003601f168201915b50505050508152602001600282018054600181600116156101000203166002900480601f016020809104026020016040519081016040528092919081815260200182805460018160011615610100020316600290048015611b085780601f10611add57610100808354040283529160200191611b08565b820191906000526020600020905b815481529060010190602001808311611aeb57829003601f168201915b505050505081526020016003820160009054906101000a900473ffffffffffffffffffffffffffffffffffffffff1673ffffffffffffffffffffffffffffffffffffffff1673ffffffffffffffffffffffffffffffffffffffff168152602001600482018054600181600116156101000203166002900480601f016020809104026020016040519081016040528092919081815260200182805460018160011615610100020316600290048015611c005780601f10611bd557610100808354040283529160200191611c00565b820191906000526020600020905b815481529060010190602001808311611be357829003601f168201915b505050505081526020016005820160009054906101000a900473ffffffffffffffffffffffffffffffffffffffff1673ffffffffffffffffffffffffffffffffffffffff1673ffffffffffffffffffffffffffffffffffffffff1681526020016006820154815250509150896040516020018082805190602001908083835b602083101515611ca45780518252602082019150602081019050602083039250611c7f565b6001836020036101000a0380198251168184511680821785525050505050509050019150506040516020818303038152906040526040518082805190602001908083835b602083101515611d0d5780518252602082019150602081019050602083039250611ce8565b6001836020036101000a03801982511681845116808217855250505050505090500191505060405180910390206000191682608001516040516020018082805190602001908083835b602083101515611d7b5780518252602082019150602081019050602083039250611d56565b6001836020036101000a0380198251168184511680821785525050505050509050019150506040516020818303038152906040526040518082805190602001908083835b602083101515611de45780518252602082019150602081019050602083039250611dbf565b6001836020036101000a03801982511681845116808217855250505050505090500191505060405180910390206000191614156121625760056000836060015173ffffffffffffffffffffffffffffffffffffffff1673ffffffffffffffffffffffffffffffffffffffff16815260200190815260200160002061012060405190810160405290816000820160009054906101000a900473ffffffffffffffffffffffffffffffffffffffff1673ffffffffffffffffffffffffffffffffffffffff1673ffffffffffffffffffffffffffffffffffffffff168152602001600182018054600181600116156101000203166002900480601f016020809104026020016040519081016040528092919081815260200182805460018160011615610100020316600290048015611f5a5780601f10611f2f57610100808354040283529160200191611f5a565b820191906000526020600020905b815481529060010190602001808311611f3d57829003601f168201915b50505050508152602001600282018054600181600116156101000203166002900480601f016020809104026020016040519081016040528092919081815260200182805460018160011615610100020316600290048015611ffc5780601f10611fd157610100808354040283529160200191611ffc565b820191906000526020600020905b815481529060010190602001808311611fdf57829003601f168201915b50505050508152602001600382018054600181600116156101000203166002900480601f01602080910402602001604051908101604052809291908181526020018280546001816001161561010002031660029004801561209e5780601f106120735761010080835404028352916020019161209e565b820191906000526020600020905b81548152906001019060200180831161208157829003601f168201915b5050505050815260200160048201548152602001600682015481526020016007820160009054906101000a900473ffffffffffffffffffffffffffffffffffffffff1673ffffffffffffffffffffffffffffffffffffffff1673ffffffffffffffffffffffffffffffffffffffff16815260200160088201548152602001600982015481525050905081602001518260a001518260200151836040015185604001518660c00151859550839350829250819150985098509850985098509850612170565b828060010193505061198c565b5b50505091939550919395565b6000600780549050905090565b60037f01000000000000000000000000000000000000000000000000000000000000000281565b60006121ba615122565b60017f0100000000000000000000000000000000000000000000000000000000000000027effffffffffffffffffffffffffffffffffffffffffffffffffffffffffffff1916600360003373ffffffffffffffffffffffffffffffffffffffff1673ffffffffffffffffffffffffffffffffffffffff16815260200190815260200160002060009054906101000a90047f0100000000000000000000000000000000000000000000000000000000000000027effffffffffffffffffffffffffffffffffffffffffffffffffffffffffffff191614801561234a575060007f010000000000000000000000000000000000000000000000000000000000000002600360008673ffffffffffffffffffffffffffffffffffffffff1673ffffffffffffffffffffffffffffffffffffffff16815260200190815260200160002060009054906101000a90047f0100000000000000000000000000000000000000000000000000000000000000027effffffffffffffffffffffffffffffffffffffffffffffffffffffffffffff1916145b151561235557600080fd5b60027f010000000000000000000000000000000000000000000000000000000000000002915083816000019073ffffffffffffffffffffffffffffffffffffffff16908173ffffffffffffffffffffffffffffffffffffffff168152505082816020018190525060008160a0018181525050338160c0019073ffffffffffffffffffffffffffffffffffffffff16908173ffffffffffffffffffffffffffffffffffffffff1681525050428160e00181815250506007819080600181540180825580915050906001820390600052602060002090600902016000909192909190915060008201518160000160006101000a81548173ffffffffffffffffffffffffffffffffffffffff021916908373ffffffffffffffffffffffffffffffffffffffff160217905550602082015181600101908051906020019061249a929190615038565b506040820151816002015560608201518160030190805190602001906124c1929190615038565b5060808201518160040190805190602001906124de929190615038565b5060a0820151816005015560c08201518160060160006101000a81548173ffffffffffffffffffffffffffffffffffffffff021916908373ffffffffffffffffffffffffffffffffffffffff16021790555060e08201518160070155610100820151816008015550505080600460008673ffffffffffffffffffffffffffffffffffffffff1673ffffffffffffffffffffffffffffffffffffffff16815260200190815260200160002060008201518160000160006101000a81548173ffffffffffffffffffffffffffffffffffffffff021916908373ffffffffffffffffffffffffffffffffffffffff16021790555060208201518160010190805190602001906125eb929190615038565b50604082015181600201556060820151816003019080519060200190612612929190615038565b50608082015181600401908051906020019061262f929190615038565b5060a0820151816005015560c08201518160060160006101000a81548173ffffffffffffffffffffffffffffffffffffffff021916908373ffffffffffffffffffffffffffffffffffffffff16021790555060e08201518160070155610100820151816008015590505081600360008673ffffffffffffffffffffffffffffffffffffffff1673ffffffffffffffffffffffffffffffffffffffff16815260200190815260200160002060006101000a81548160ff02191690837f010000000000000000000000000000000000000000000000000000000000000090040217905550600160026000828254019250508190555050505050565b6000606080606080606060008061273d6150b8565b612745614fbf565b60037f0100000000000000000000000000000000000000000000000000000000000000027effffffffffffffffffffffffffffffffffffffffffffffffffffffffffffff1916600360008e73ffffffffffffffffffffffffffffffffffffffff1673ffffffffffffffffffffffffffffffffffffffff16815260200190815260200160002060009054906101000a90047f0100000000000000000000000000000000000000000000000000000000000000027effffffffffffffffffffffffffffffffffffffffffffffffffffffffffffff191614151561282557600080fd5b600560008d73ffffffffffffffffffffffffffffffffffffffff1673ffffffffffffffffffffffffffffffffffffffff16815260200190815260200160002060050160008c815260200190815260200160002060e0604051908101604052908160008201548152602001600182018054600181600116156101000203166002900480601f0160208091040260200160405190810160405280929190818152602001828054600181600116156101000203166002900480156129275780601f106128fc57610100808354040283529160200191612927565b820191906000526020600020905b81548152906001019060200180831161290a57829003601f168201915b50505050508152602001600282018054600181600116156101000203166002900480601f0160208091040260200160405190810160405280929190818152602001828054600181600116156101000203166002900480156129c95780601f1061299e576101008083540402835291602001916129c9565b820191906000526020600020905b8154815290600101906020018083116129ac57829003601f168201915b505050505081526020016003820160009054906101000a900473ffffffffffffffffffffffffffffffffffffffff1673ffffffffffffffffffffffffffffffffffffffff1673ffffffffffffffffffffffffffffffffffffffff168152602001600482018054600181600116156101000203166002900480601f016020809104026020016040519081016040528092919081815260200182805460018160011615610100020316600290048015612ac15780601f10612a9657610100808354040283529160200191612ac1565b820191906000526020600020905b815481529060010190602001808311612aa457829003601f168201915b505050505081526020016005820160009054906101000a900473ffffffffffffffffffffffffffffffffffffffff1673ffffffffffffffffffffffffffffffffffffffff1673ffffffffffffffffffffffffffffffffffffffff1681526020016006820154815250509150600560008d73ffffffffffffffffffffffffffffffffffffffff1673ffffffffffffffffffffffffffffffffffffffff16815260200190815260200160002061012060405190810160405290816000820160009054906101000a900473ffffffffffffffffffffffffffffffffffffffff1673ffffffffffffffffffffffffffffffffffffffff1673ffffffffffffffffffffffffffffffffffffffff168152602001600182018054600181600116156101000203166002900480601f016020809104026020016040519081016040528092919081815260200182805460018160011615610100020316600290048015612c675780601f10612c3c57610100808354040283529160200191612c67565b820191906000526020600020905b815481529060010190602001808311612c4a57829003601f168201915b50505050508152602001600282018054600181600116156101000203166002900480601f016020809104026020016040519081016040528092919081815260200182805460018160011615610100020316600290048015612d095780601f10612cde57610100808354040283529160200191612d09565b820191906000526020600020905b815481529060010190602001808311612cec57829003601f168201915b50505050508152602001600382018054600181600116156101000203166002900480601f016020809104026020016040519081016040528092919081815260200182805460018160011615610100020316600290048015612dab5780601f10612d8057610100808354040283529160200191612dab565b820191906000526020600020905b815481529060010190602001808311612d8e57829003601f168201915b5050505050815260200160048201548152602001600682015481526020016007820160009054906101000a900473ffffffffffffffffffffffffffffffffffffffff1673ffffffffffffffffffffffffffffffffffffffff1673ffffffffffffffffffffffffffffffffffffffff1681526020016008820154815260200160098201548152505090508160000151826020015183608001518360200151846040015186604001518760a001518860c001518696508595508494508393508292509950995099509950995099509950995050509295985092959890939650565b60046020528060005260406000206000915090508060000160009054906101000a900473ffffffffffffffffffffffffffffffffffffffff1690806001018054600181600116156101000203166002900480601f016020809104026020016040519081016040528092919081815260200182805460018160011615610100020316600290048015612f5c5780601f10612f3157610100808354040283529160200191612f5c565b820191906000526020600020905b815481529060010190602001808311612f3f57829003601f168201915b505050505090806002015490806003018054600181600116156101000203166002900480601f0160208091040260200160405190810160405280929190818152602001828054600181600116156101000203166002900480156130005780601f10612fd557610100808354040283529160200191613000565b820191906000526020600020905b815481529060010190602001808311612fe357829003601f168201915b505050505090806004018054600181600116156101000203166002900480601f01602080910402602001604051908101604052809291908181526020018280546001816001161561010002031660029004801561309e5780601f106130735761010080835404028352916020019161309e565b820191906000526020600020905b81548152906001019060200180831161308157829003601f168201915b5050505050908060050154908060060160009054906101000a900473ffffffffffffffffffffffffffffffffffffffff16908060070154908060080154905089565b60017f01000000000000000000000000000000000000000000000000000000000000000281565b61310f614fbf565b60037f0100000000000000000000000000000000000000000000000000000000000000027effffffffffffffffffffffffffffffffffffffffffffffffffffffffffffff1916600360003373ffffffffffffffffffffffffffffffffffffffff1673ffffffffffffffffffffffffffffffffffffffff16815260200190815260200160002060009054906101000a90047f0100000000000000000000000000000000000000000000000000000000000000027effffffffffffffffffffffffffffffffffffffffffffffffffffffffffffff19161415156131ef57600080fd5b600560003373ffffffffffffffffffffffffffffffffffffffff1673ffffffffffffffffffffffffffffffffffffffff16815260200190815260200160002061012060405190810160405290816000820160009054906101000a900473ffffffffffffffffffffffffffffffffffffffff1673ffffffffffffffffffffffffffffffffffffffff1673ffffffffffffffffffffffffffffffffffffffff168152602001600182018054600181600116156101000203166002900480601f01602080910402602001604051908101604052809291908181526020018280546001816001161561010002031660029004801561332a5780601f106132ff5761010080835404028352916020019161332a565b820191906000526020600020905b81548152906001019060200180831161330d57829003601f168201915b50505050508152602001600282018054600181600116156101000203166002900480601f0160208091040260200160405190810160405280929190818152602001828054600181600116156101000203166002900480156133cc5780601f106133a1576101008083540402835291602001916133cc565b820191906000526020600020905b8154815290600101906020018083116133af57829003601f168201915b50505050508152602001600382018054600181600116156101000203166002900480601f01602080910402602001604051908101604052809291908181526020018280546001816001161561010002031660029004801561346e5780601f106134435761010080835404028352916020019161346e565b820191906000526020600020905b81548152906001019060200180831161345157829003601f168201915b5050505050815260200160048201548152602001600682015481526020016007820160009054906101000a900473ffffffffffffffffffffffffffffffffffffffff1673ffffffffffffffffffffffffffffffffffffffff1673ffffffffffffffffffffffffffffffffffffffff16815260200160088201548152602001600982015481525050905082816060018190525081816080018181525050428161010001818152505080600560003373ffffffffffffffffffffffffffffffffffffffff1673ffffffffffffffffffffffffffffffffffffffff16815260200190815260200160002060008201518160000160006101000a81548173ffffffffffffffffffffffffffffffffffffffff021916908373ffffffffffffffffffffffffffffffffffffffff16021790555060208201518160010190805190602001906135b8929190615038565b5060408201518160020190805190602001906135d5929190615038565b5060608201518160030190805190602001906135f2929190615038565b506080820151816004015560a0820151816006015560c08201518160070160006101000a81548173ffffffffffffffffffffffffffffffffffffffff021916908373ffffffffffffffffffffffffffffffffffffffff16021790555060e082015181600801556101008201518160090155905050505050565b60027f01000000000000000000000000000000000000000000000000000000000000000281565b60056020528060005260406000206000915090508060000160009054906101000a900473ffffffffffffffffffffffffffffffffffffffff1690806001018054600181600116156101000203166002900480601f0160208091040260200160405190810160405280929190818152602001828054600181600116156101000203166002900480156137645780601f1061373957610100808354040283529160200191613764565b820191906000526020600020905b81548152906001019060200180831161374757829003601f168201915b505050505090806002018054600181600116156101000203166002900480601f0160208091040260200160405190810160405280929190818152602001828054600181600116156101000203166002900480156138025780601f106137d757610100808354040283529160200191613802565b820191906000526020600020905b8154815290600101906020018083116137e557829003601f168201915b505050505090806003018054600181600116156101000203166002900480601f0160208091040260200160405190810160405280929190818152602001828054600181600116156101000203166002900480156138a05780601f10613875576101008083540402835291602001916138a0565b820191906000526020600020905b81548152906001019060200180831161388357829003601f168201915b5050505050908060040154908060060154908060070160009054906101000a900473ffffffffffffffffffffffffffffffffffffffff16908060080154908060090154905089565b6006818154811015156138f757fe5b9060005260206000209060070201600091509050806000015490806001018054600181600116156101000203166002900480601f0160208091040260200160405190810160405280929190818152602001828054600181600116156101000203166002900480156139a95780601f1061397e576101008083540402835291602001916139a9565b820191906000526020600020905b81548152906001019060200180831161398c57829003601f168201915b505050505090806002018054600181600116156101000203166002900480601f016020809104026020016040519081016040528092919081815260200182805460018160011615610100020316600290048015613a475780601f10613a1c57610100808354040283529160200191613a47565b820191906000526020600020905b815481529060010190602001808311613a2a57829003601f168201915b5050505050908060030160009054906101000a900473ffffffffffffffffffffffffffffffffffffffff1690806004018054600181600116156101000203166002900480601f016020809104026020016040519081016040528092919081815260200182805460018160011615610100020316600290048015613b0b5780601f10613ae057610100808354040283529160200191613b0b565b820191906000526020600020905b815481529060010190602001808311613aee57829003601f168201915b5050505050908060050160009054906101000a900473ffffffffffffffffffffffffffffffffffffffff16908060060154905087565b600781815481101515613b5057fe5b90600052602060002090600902016000915090508060000160009054906101000a900473ffffffffffffffffffffffffffffffffffffffff1690806001018054600181600116156101000203166002900480601f016020809104026020016040519081016040528092919081815260200182805460018160011615610100020316600290048015613c225780601f10613bf757610100808354040283529160200191613c22565b820191906000526020600020905b815481529060010190602001808311613c0557829003601f168201915b505050505090806002015490806003018054600181600116156101000203166002900480601f016020809104026020016040519081016040528092919081815260200182805460018160011615610100020316600290048015613cc65780601f10613c9b57610100808354040283529160200191613cc6565b820191906000526020600020905b815481529060010190602001808311613ca957829003601f168201915b505050505090806004018054600181600116156101000203166002900480601f016020809104026020016040519081016040528092919081815260200182805460018160011615610100020316600290048015613d645780601f10613d3957610100808354040283529160200191613d64565b820191906000526020600020905b815481529060010190602001808311613d4757829003601f168201915b5050505050908060050154908060060160009054906101000a900473ffffffffffffffffffffffffffffffffffffffff16908060070154908060080154905089565b613dae615122565b60027f0100000000000000000000000000000000000000000000000000000000000000027effffffffffffffffffffffffffffffffffffffffffffffffffffffffffffff1916600360003373ffffffffffffffffffffffffffffffffffffffff1673ffffffffffffffffffffffffffffffffffffffff16815260200190815260200160002060009054906101000a90047f0100000000000000000000000000000000000000000000000000000000000000027effffffffffffffffffffffffffffffffffffffffffffffffffffffffffffff1916141515613e8e57600080fd5b600460003373ffffffffffffffffffffffffffffffffffffffff1673ffffffffffffffffffffffffffffffffffffffff16815260200190815260200160002061012060405190810160405290816000820160009054906101000a900473ffffffffffffffffffffffffffffffffffffffff1673ffffffffffffffffffffffffffffffffffffffff1673ffffffffffffffffffffffffffffffffffffffff168152602001600182018054600181600116156101000203166002900480601f016020809104026020016040519081016040528092919081815260200182805460018160011615610100020316600290048015613fc95780601f10613f9e57610100808354040283529160200191613fc9565b820191906000526020600020905b815481529060010190602001808311613fac57829003601f168201915b5050505050815260200160028201548152602001600382018054600181600116156101000203166002900480601f0160208091040260200160405190810160405280929190818152602001828054600181600116156101000203166002900480156140755780601f1061404a57610100808354040283529160200191614075565b820191906000526020600020905b81548152906001019060200180831161405857829003601f168201915b50505050508152602001600482018054600181600116156101000203166002900480601f0160208091040260200160405190810160405280929190818152602001828054600181600116156101000203166002900480156141175780601f106140ec57610100808354040283529160200191614117565b820191906000526020600020905b8154815290600101906020018083116140fa57829003601f168201915b50505050508152602001600582015481526020016006820160009054906101000a900473ffffffffffffffffffffffffffffffffffffffff1673ffffffffffffffffffffffffffffffffffffffff1673ffffffffffffffffffffffffffffffffffffffff16815260200160078201548152602001600882015481525050905083816040018181525050828160600181905250818160800181905250428161010001818152505080600460003373ffffffffffffffffffffffffffffffffffffffff1673ffffffffffffffffffffffffffffffffffffffff16815260200190815260200160002060008201518160000160006101000a81548173ffffffffffffffffffffffffffffffffffffffff021916908373ffffffffffffffffffffffffffffffffffffffff1602179055506020820151816001019080519060200190614260929190615038565b50604082015181600201556060820151816003019080519060200190614287929190615038565b5060808201518160040190805190602001906142a4929190615038565b5060a0820151816005015560c08201518160060160006101000a81548173ffffffffffffffffffffffffffffffffffffffff021916908373ffffffffffffffffffffffffffffffffffffffff16021790555060e08201518160070155610100820151816008015590505050505050565b6000809054906101000a900473ffffffffffffffffffffffffffffffffffffffff1681565b600060017f0100000000000000000000000000000000000000000000000000000000000000027effffffffffffffffffffffffffffffffffffffffffffffffffffffffffffff1916600360008473ffffffffffffffffffffffffffffffffffffffff1673ffffffffffffffffffffffffffffffffffffffff16815260200190815260200160002060009054906101000a90047f0100000000000000000000000000000000000000000000000000000000000000027effffffffffffffffffffffffffffffffffffffffffffffffffffffffffffff1916141561441e57606590506145e9565b60027f0100000000000000000000000000000000000000000000000000000000000000027effffffffffffffffffffffffffffffffffffffffffffffffffffffffffffff1916600360008473ffffffffffffffffffffffffffffffffffffffff1673ffffffffffffffffffffffffffffffffffffffff16815260200190815260200160002060009054906101000a90047f0100000000000000000000000000000000000000000000000000000000000000027effffffffffffffffffffffffffffffffffffffffffffffffffffffffffffff1916141561450157606690506145e9565b60037f0100000000000000000000000000000000000000000000000000000000000000027effffffffffffffffffffffffffffffffffffffffffffffffffffffffffffff1916600360008473ffffffffffffffffffffffffffffffffffffffff1673ffffffffffffffffffffffffffffffffffffffff16815260200190815260200160002060009054906101000a90047f0100000000000000000000000000000000000000000000000000000000000000027effffffffffffffffffffffffffffffffffffffffffffffffffffffffffffff191614156145e457606790506145e9565b606490505b919050565b7f312e302e3000000000000000000000000000000000000000000000000000000081565b600061461c6150b8565b600060027f0100000000000000000000000000000000000000000000000000000000000000027effffffffffffffffffffffffffffffffffffffffffffffffffffffffffffff1916600360003373ffffffffffffffffffffffffffffffffffffffff1673ffffffffffffffffffffffffffffffffffffffff16815260200190815260200160002060009054906101000a90047f0100000000000000000000000000000000000000000000000000000000000000027effffffffffffffffffffffffffffffffffffffffffffffffffffffffffffff19161480156147d0575060037f0100000000000000000000000000000000000000000000000000000000000000027effffffffffffffffffffffffffffffffffffffffffffffffffffffffffffff1916600360008873ffffffffffffffffffffffffffffffffffffffff1673ffffffffffffffffffffffffffffffffffffffff16815260200190815260200160002060009054906101000a90047f0100000000000000000000000000000000000000000000000000000000000000027effffffffffffffffffffffffffffffffffffffffffffffffffffffffffffff1916145b15156147db57600080fd5b600560008773ffffffffffffffffffffffffffffffffffffffff1673ffffffffffffffffffffffffffffffffffffffff16815260200190815260200160002092506001836006015401826000018181525050600460003373ffffffffffffffffffffffffffffffffffffffff1673ffffffffffffffffffffffffffffffffffffffff1681526020019081526020016000206001018054600181600116156101000203166002900480601f0160208091040260200160405190810160405280929190818152602001828054600181600116156101000203166002900480156149035780601f106148d857610100808354040283529160200191614903565b820191906000526020600020905b8154815290600101906020018083116148e657829003601f168201915b5050505050826020018190525084826040018190525083826080018190525085826060019073ffffffffffffffffffffffffffffffffffffffff16908173ffffffffffffffffffffffffffffffffffffffff1681525050338260a0019073ffffffffffffffffffffffffffffffffffffffff16908173ffffffffffffffffffffffffffffffffffffffff1681525050428260c001818152505081836005016000856006015481526020019081526020016000206000820151816000015560208201518160010190805190602001906149dc929190615038565b5060408201518160020190805190602001906149f9929190615038565b5060608201518160030160006101000a81548173ffffffffffffffffffffffffffffffffffffffff021916908373ffffffffffffffffffffffffffffffffffffffff1602179055506080820151816004019080519060200190614a5d929190615038565b5060a08201518160050160006101000a81548173ffffffffffffffffffffffffffffffffffffffff021916908373ffffffffffffffffffffffffffffffffffffffff16021790555060c082015181600601559050506001836006016000828254019250508190555060016006805490500182600001818152505060068290806001815401808255809150509060018203906000526020600020906007020160009091929091909150600082015181600001556020820151816001019080519060200190614b2b929190615038565b506040820151816002019080519060200190614b48929190615038565b5060608201518160030160006101000a81548173ffffffffffffffffffffffffffffffffffffffff021916908373ffffffffffffffffffffffffffffffffffffffff1602179055506080820151816004019080519060200190614bac929190615038565b5060a08201518160050160006101000a81548173ffffffffffffffffffffffffffffffffffffffff021916908373ffffffffffffffffffffffffffffffffffffffff16021790555060c08201518160060155505050600460003373ffffffffffffffffffffffffffffffffffffffff1673ffffffffffffffffffffffffffffffffffffffff16815260200190815260200160002090506001816005016000828254019250508190555082600560008873ffffffffffffffffffffffffffffffffffffffff1673ffffffffffffffffffffffffffffffffffffffff1681526020019081526020016000206000820160009054906101000a900473ffffffffffffffffffffffffffffffffffffffff168160000160006101000a81548173ffffffffffffffffffffffffffffffffffffffff021916908373ffffffffffffffffffffffffffffffffffffffff16021790555060018201816001019080546001816001161561010002031660029004614d2392919061519b565b5060028201816002019080546001816001161561010002031660029004614d4b92919061519b565b5060038201816003019080546001816001161561010002031660029004614d7392919061519b565b5060048201548160040155600682015481600601556007820160009054906101000a900473ffffffffffffffffffffffffffffffffffffffff168160070160006101000a81548173ffffffffffffffffffffffffffffffffffffffff021916908373ffffffffffffffffffffffffffffffffffffffff160217905550600882015481600801556009820154816009015590505080600460003373ffffffffffffffffffffffffffffffffffffffff1673ffffffffffffffffffffffffffffffffffffffff1681526020019081526020016000206000820160009054906101000a900473ffffffffffffffffffffffffffffffffffffffff168160000160006101000a81548173ffffffffffffffffffffffffffffffffffffffff021916908373ffffffffffffffffffffffffffffffffffffffff16021790555060018201816001019080546001816001161561010002031660029004614ed492919061519b565b506002820154816002015560038201816003019080546001816001161561010002031660029004614f0692919061519b565b5060048201816004019080546001816001161561010002031660029004614f2e92919061519b565b50600582015481600501556006820160009054906101000a900473ffffffffffffffffffffffffffffffffffffffff168160060160006101000a81548173ffffffffffffffffffffffffffffffffffffffff021916908373ffffffffffffffffffffffffffffffffffffffff1602179055506007820154816007015560088201548160080155905050505050505050565b61012060405190810160405280600073ffffffffffffffffffffffffffffffffffffffff1681526020016060815260200160608152602001606081526020016000815260200160008152602001600073ffffffffffffffffffffffffffffffffffffffff16815260200160008152602001600081525090565b828054600181600116156101000203166002900490600052602060002090601f016020900481019282601f1061507957805160ff19168380011785556150a7565b828001600101855582156150a7579182015b828111156150a657825182559160200191906001019061508b565b5b5090506150b49190615222565b5090565b60e060405190810160405280600081526020016060815260200160608152602001600073ffffffffffffffffffffffffffffffffffffffff16815260200160608152602001600073ffffffffffffffffffffffffffffffffffffffff168152602001600081525090565b61012060405190810160405280600073ffffffffffffffffffffffffffffffffffffffff1681526020016060815260200160008152602001606081526020016060815260200160008152602001600073ffffffffffffffffffffffffffffffffffffffff16815260200160008152602001600081525090565b828054600181600116156101000203166002900490600052602060002090601f016020900481019282601f106151d45780548555615211565b8280016001018555821561521157600052602060002091601f016020900482015b828111156152105782548255916001019190600101906151f5565b5b50905061521e9190615222565b5090565b61524491905b80821115615240576000816000905550600101615228565b5090565b905600a165627a7a72305820ad5480662ac632fde44308c63fb42a58404851acbd4150ceb3f4f6e02425b48f0029",
  "source": "/*\r\n    @author: Jaime Jesus Alvarado Perez\r\n    @version: 1.0.0\r\n    @date: 10/08/2019\r\n*/\r\npragma solidity 0.4.24;\r\n\r\ncontract DigiCert{\r\n    \r\n   //Estructuras de los usuarios\r\n    struct Organization {\r\n        address organization_address;//direccion de la organization\r\n        string name_organization;//nombre de la organizacion\r\n        uint256 phone;//telefono\r\n        string email;//correo de la institucion\r\n        string web_page;//pagina web de la organizacion\r\n        uint256 qt_certificates_issued;//cantidad de certificados emitidos\r\n        address added_by;//aadido por...\r\n        uint256 added_timestamp;//fecha que fue aadido\r\n        uint256 updated_timestamp;//fecha en la que se actualizo la informacion\r\n    }\r\n\r\n    struct Student {\r\n        address student_address;//direccion del estudiante\r\n        string name_student;//nombre del Estudiante\r\n        string lastname_student;//apellido del Estudiante\r\n        string email;//correo\r\n        uint256 phone;//telefono\r\n        mapping (uint256 => Certificate) certificates;//mapping de los certificados que posee el estudiante\r\n        uint256 qt_certificates;//cantidad de certificados que posee el estudiante\r\n        address added_by;//aadido por...\r\n        uint256 added_timestamp;//fecha en que se aadio al estudiante\r\n        uint256 updated_timestamp;//ultima fecha de actualizacion\r\n    }\r\n    \r\n    struct Certificate {\r\n        uint256 id;//id del certificado\r\n        string organization; //nombre de la organizacion\r\n        string title;//descripcion del certificado\r\n        address certificate_owner;//propietario del significado\r\n        string ipfs_hash;//hash del protocolo ipfs donde se alojo\r\n        address added_by;//aadido por ...\r\n        uint256 added_timestamp;//fecha en la que se aadio el certificado\r\n    }\r\n  \r\n    // Constantes\r\n    bytes1 public constant T_ADMIN = 0x01;//administrador\r\n    bytes1 public constant T_ORGANIZATION = 0x02;//organizacion\r\n    bytes1 public constant T_STUDENT = 0x03;//estudiante\r\n    bytes10 public constant VERSION = \"1.0.0\";//version del contrato\r\n\r\n    address public _owner;//persona que desplego el contrato\r\n    uint256 public _created_timestamp;//fecha de creacion del contrato\r\n    uint256 public _qt_users = 0;//cantidad de usuarios que posee el contrato\r\n    \r\n    //mapeo de usuarios: 1-Admin, 2-Organizaciones, 3-Estudiantes\r\n    \r\n    mapping (address => bytes1) public _users;//mapping de usuarios\r\n    mapping (address => Organization) public _organizations;//mapping de organizaciones\r\n    mapping (address => Student) public _students;//mapping de estudiantes\r\n    \r\n    Certificate[] public certificates_hashes;\r\n    Organization[] public organizations_added;\r\n    \r\n    //Constructor\r\n    \r\n    constructor() public payable\r\n    {\r\n        _owner = msg.sender;\r\n        _created_timestamp = block.timestamp;\r\n\r\n        _users[msg.sender] = T_ADMIN;\r\n        _qt_users++;\r\n    }\r\n    \r\n    /*\r\n    addOrganization:\r\n    Metodo para insertar una nueva organizacion.\r\n    El administrador solo puede aadir organizaciones\r\n    @parametros: address -> paddress  (Clave publica del usuario),\r\n                 string  -> _name_organization (nombre de la organizacion),\r\n                 string  -> _web_page (direccion de la pagina web de la organizacion)\r\n    */\r\n    function addOrganization(address paddress, string _name_organization) public payable\r\n    {\r\n      \r\n      require(_users[msg.sender]==T_ADMIN && _users[paddress]== 0x00);\r\n      \r\n      bytes1 user_type;\r\n      \r\n      user_type = T_ORGANIZATION;\r\n\r\n      Organization memory objOrganization;\r\n      \r\n      objOrganization.organization_address=paddress;\r\n      objOrganization.name_organization=_name_organization;\r\n      objOrganization.qt_certificates_issued = 0;\r\n      objOrganization.added_by = msg.sender;\r\n      objOrganization.added_timestamp = block.timestamp;\r\n      \r\n      organizations_added.push(objOrganization);\r\n\r\n      _organizations[paddress] = objOrganization;\r\n      \r\n      _users[paddress] = user_type;\r\n      _qt_users += 1;\r\n    }\r\n    \r\n    /*\r\n    addStudent:\r\n    Metodo para insertar un nuevo Estudiante.\r\n    Solo la organizacion puede aadir Estudiantes\r\n    @parametros: address -> paddress  (Clave publica del Estudiante),\r\n                 string  -> _name_student (nombre del Estudiante),\r\n                 string  -> _web_page (direccion de la pagina web de la organizacion)\r\n    */\r\n    \r\n    function addStudent(address paddress, string _name_student, string _lastname_student)public payable\r\n    {\r\n      require(_users[msg.sender]==T_ORGANIZATION && _users[paddress]== 0x00);\r\n    \r\n      bytes1 user_type;\r\n        \r\n      user_type = T_STUDENT;\r\n\r\n      Student memory objStudent;\r\n\r\n      objStudent.student_address=paddress;\r\n      objStudent.name_student=_name_student;\r\n      objStudent.lastname_student=_lastname_student;\r\n      objStudent.qt_certificates = 0;\r\n      objStudent.added_by = msg.sender;\r\n      objStudent.added_timestamp = block.timestamp;\r\n\r\n      _students[paddress] = objStudent;\r\n      \r\n      _users[paddress] = user_type;\r\n      _qt_users += 1;\r\n    }\r\n    \r\n    /*\r\n    Aadir Certificado: addCertificate:\r\n    Metodo para insertar un nuevo certificado de un Estudiante.\r\n    Solo las organizaciones pueden aadir certificados.\r\n\r\n    @parametros:    address ->  pstudent(clave publica del Estudiante),    \r\n                    string  ->  _description(descripcion del certificado),\r\n                    string  ->  ipfs_hash (Hash IPFS del certificado .pdf)\r\n    */\r\n    \r\n    \r\n  function addCertificate(address pstudent, string _title, string ipfs_hash) public payable\r\n  {\r\n    require(_users[msg.sender] == T_ORGANIZATION && _users[pstudent] == T_STUDENT);\r\n\r\n    Student storage objStudent = _students[pstudent];\r\n    Certificate memory objCertificate;\r\n\r\n    objCertificate.id = objStudent.qt_certificates + 1;\r\n    objCertificate.organization =_organizations[msg.sender].name_organization;\r\n    objCertificate.title = _title;\r\n    objCertificate.ipfs_hash = ipfs_hash;\r\n    objCertificate.certificate_owner = pstudent;\r\n    objCertificate.added_by = msg.sender;\r\n    objCertificate.added_timestamp = block.timestamp;\r\n\r\n    objStudent.certificates[objStudent.qt_certificates] = objCertificate;\r\n    objStudent.qt_certificates += 1;\r\n    \r\n    objCertificate.id=certificates_hashes.length+1;\r\n    certificates_hashes.push(objCertificate);\r\n\r\n    Organization storage objOrganization = _organizations[msg.sender];\r\n    objOrganization.qt_certificates_issued += 1;\r\n\r\n    _students[pstudent] = objStudent;\r\n    _organizations[msg.sender] = objOrganization;\r\n  }\r\n  \r\n  /* setStudent / setOrganization:\r\n    Method to update the information of a organization or a student.\r\n    Only the organization or the student can update their details.\r\n\r\n    @param string pipfs_hash IPFS hash with the details of the student*/\r\n  \r\n  function setStudent(string _email, uint256 _phone) public payable\r\n  {\r\n    require(_users[msg.sender] == T_STUDENT);\r\n\r\n    Student memory objStudent = _students[msg.sender];\r\n\r\n    objStudent.email = _email;\r\n    objStudent.phone = _phone;\r\n    objStudent.updated_timestamp = block.timestamp;\r\n\r\n    _students[msg.sender] = objStudent;\r\n  }\r\n\r\n  function setOrganization(uint256 _phone, string _email, string _web_page) public payable\r\n  {\r\n    require(_users[msg.sender] == T_ORGANIZATION);\r\n\r\n    Organization memory objOrganization = _organizations[msg.sender];\r\n\r\n    objOrganization.phone = _phone;\r\n    objOrganization.email = _email;\r\n    objOrganization.web_page = _web_page;\r\n    objOrganization.updated_timestamp = block.timestamp;\r\n\r\n    _organizations[msg.sender] = objOrganization;\r\n  }\r\n  \r\n  /*\r\n    getCertificateEstudent:\r\n    Metodo para conseguir un especifico certificado de un Estudiante.\r\n\r\n    @parametros: address ->pstudent (clave publica del Estudiante)\r\n\r\n    @return:    uint256 ->  Numero de certificado.\r\n                string  ->  Nombre de la organizacion.\r\n                string  ->  IPFS Hash.\r\n                string  ->  Nombre del propietario\r\n                string  ->  Apellido del propietario.\r\n                string  ->  titulo del Certificado.\r\n                address ->  Direccion de la organizacion.\r\n                uint256 ->  Fecha en la que el Certificado fue Emitido.\r\n    */  \r\n  function getCertificateEstudent(address pstudent, uint256 pcertificate) public view returns (uint256, string, string, string, string, string, address, uint256)\r\n  {\r\n    require(_users[pstudent] == T_STUDENT);\r\n    Certificate memory objCertificate = _students[pstudent].certificates[pcertificate];\r\n    Student memory objStudent = _students[pstudent];\r\n    return (objCertificate.id, objCertificate.organization, objCertificate.ipfs_hash, objStudent.name_student, objStudent.lastname_student, objCertificate.title, objCertificate.added_by, objCertificate.added_timestamp);\r\n  }\r\n  \r\n  /*\r\n    getCertificateThird\r\n    Metodo para corroborar la autenticidad de un certificado por terceros\r\n    @parametros:    string ->  pcertificate (clave publica del certificado)\r\n    \r\n    @return:        string  ->  nombre de la institucion que emitio el certificado\r\n                    address ->  direccion publica de la institucion\r\n                    string  ->  nombre del Estudiante al que pertenece el certificado\r\n                    string  ->  apellido del Estudiante\r\n                    string  ->  titulo del certificado\r\n                    uint256 ->  fecha en la que se emitio el certificado\r\n  */\r\n  function getCertificateThird(string _ipfs_hash) public view returns (string, address, string, string, string, uint256)\r\n  {\r\n      for(uint i=0; i<=certificates_hashes.length; i++){\r\n          Certificate memory objCertificate = certificates_hashes[i];\r\n          if(keccak256(abi.encodePacked(objCertificate.ipfs_hash)) == keccak256(abi.encodePacked(_ipfs_hash)))\r\n          {\r\n              Student memory objStudent = _students[objCertificate.certificate_owner];\r\n              return (objCertificate.organization, objCertificate.added_by, objStudent.name_student, objStudent.lastname_student, objCertificate.title, objCertificate.added_timestamp);\r\n          }\r\n      }\r\n  }\r\n  \r\n  function totalOrganizations() public view returns (uint){\r\n      return organizations_added.length;\r\n  }\r\n  \r\n  function userType(address uaddress) public view returns (uint){\r\n      if(_users[uaddress]==T_ADMIN){\r\n          return 101;\r\n      }if(_users[uaddress]==T_ORGANIZATION){\r\n          return 102;\r\n      }if(_users[uaddress]==T_STUDENT){\r\n          return 103;\r\n      }else\r\n      return 100;\r\n  }\r\n}",
  "sourcePath": "C:\\Users\\XYLON\\Desktop\\Prototipo3\\digicert\\contracts\\DigiCert.sol",
  "compiler": {
    "name": "solc",
    "version": "0.4.24+commit.e67f0147.Emscripten.clang"
  },
  "schemaVersion": "2.0.1",
  "updatedAt": "2020-02-12T21:57:12.494Z"
}